:100000000C9428010C948D030C9466030C945001FD
:100010000C9450010C9450010C9450010C9450011C
:100020000C9450010C9450010C9450010C9450010C
:100030000C9450010C9450010C9450010C945001FC
:100040000C94D80A0C9450010C94FE030C94D80321
:100050000C9450010C9450010C9450010C945001DC
:100060000C948D040C945001506C61636520696E92
:100070006465782066696E676572206F6E207468AB
:10008000652073656E736F7220776974682073746E
:10009000656164792070726573737572652E004DA9
:1000A0004158333031303520776173206E6F7420C2
:1000B000666F756E642E20506C6561736520636891
:1000C00065636B20776972696E672F706F776572F1
:1000D0002E0042504D004E6F2066696E676572209B
:1000E0003F0053504F32004E6F2066696E67657255
:1000F000203F0020627574746F6E20746F207374DB
:100100006172740020507265737320746865207585
:1001100073657200526573746172743F202D3E5393
:10012000320042504D3A0053504F323A0053504F34
:10013000323A20004C61746368696E672053504FF7
:10014000322076616C006C696768746C790041706C
:10015000706C792066696E6765720042504D3A2076
:10016000004C61746368696E672042504D2076616F
:100170006C007769746820707265737375726500BE
:100180004170706C792066696E6765720074616B8E
:1001900065206D6561737572656D656E740050756F
:1001A000736820533120746F0073656E736F722013
:1001B0006E6F7700506C6163652066696E6765726B
:1001C000206F6E00617420616E792074696D650026
:1001D0005075736820533120746F20726573657495
:1001E0000056657273696F6E20310057656C636FDE
:1001F0006D6520746F205742484D210000000000BB
:10020000240027002A0000000000250028002B0001
:1002100004040404040404040202020202020303AC
:1002200003030303010204081020408001020408B4
:100230001020010204081020000000080002010044
:1002400000030407000000000000000051174B17D6
:1002500011241FBECFEFD8E0DEBFCDBF27E0A4EC56
:10026000B1E001C01D92A933B207E1F711E0A0E0AF
:10027000B1E0EAEAF9E302C005900D92A43CB107AF
:10028000D9F711E0C7E2D1E004C02197FE010E9436
:10029000C61AC632D107C9F70E94220B0C94C81C9B
:1002A0000C9400000895CF92DF92EF92FF920F938B
:1002B0001F93CF93DF936C017A018B01C0E0D0E0F4
:1002C000CE15DF0581F0D8016D918D01D601ED913C
:1002D000FC910190F081E02DC6010995892B11F068
:1002E0002196EECF7E01C701DF91CF911F910F9133
:1002F000FF90EF90DF90CF900895FC01538D448DD7
:10030000252F30E0842F90E0821B930B541710F0C0
:10031000CF96089501970895FC01918D828D9817CD
:1003200061F0828DDF01A80FB11D5D968C91928DD9
:100330009F5F9F73928F90E008958FEF9FEF0895D6
:10034000FC01918D828D981731F0828DE80FF11D9F
:10035000858D90E008958FEF9FEF0895FC01918DBA
:10036000228D892F90E0805C9F4F821B91098F73B3
:10037000992708958EE396E00E94AE0121E0892B33
:1003800009F420E0822F0895FC01848DDF01A80F7D
:10039000B11DA35ABF4F2C91848D90E001968F73AD
:1003A0009927848FA689B7892C93A089B1898C91CC
:1003B000837080648C93938D848D981306C002881B
:1003C000F389E02D80818F7D80830895EF92FF92E5
:1003D0000F931F93CF93DF93EC0181E0888F9B8D68
:1003E0008C8D981305C0E889F989808185FD26C028
:1003F000F62E0B8D10E00F5F1F4F0F731127E02EAD
:100400008C8DE8120CC00FB607FCFACFE889F98989
:10041000808185FFF5CFCE010E94C401F1CF8B8D85
:10042000FE01E80FF11DE35AFF4FF0829FB7F894E9
:100430000B8FEA89FB89808180620AC09FB7F8949C
:10044000EE89FF896083E889F989808183708064FF
:1004500080839FBF81E090E0DF91CF911F910F914A
:10046000FF90EF900895CF93DF93EC01888D882360
:10047000C9F0EA89FB89808185FD05C0A889B98911
:100480008C9186FD0FC00FB607FCF5CF808185FFEC
:10049000F2CFA889B9898C9185FFEDCFCE010E945A
:1004A000C401E7CFDF91CF91089580E090E0892BE0
:1004B00029F00E94BA0181110C940000089585ED85
:1004C0008093BC008091BC0084FDFCCF1092390663
:1004D00008954091CE05262F30E0240F311D2132A2
:1004E0003105DCF4209139062430C9F4FC0180E0A8
:1004F00090E0861758F43091CE052191DC01A25589
:10050000BA4FA30FB11D2C930196F3CF8091CE0566
:10051000680F6093CE0580E0089581E0089582E041
:100520000895089508950895E091F2058091F105E8
:10053000E81730F4F0E0ED50FA4F808190E0089534
:100540008FEF9FEF08959091F2058091F105981734
:1005500050F4E92FF0E0ED50FA4F208130E09F5F3A
:100560009093F20502C02FEF3FEFC90108958091EB
:10057000F10590E02091F205821B91090895CF9238
:10058000DF92EF92FF920F931F93CF93DF937C0143
:10059000CB018A0120913D06222389F0EB016B01FA
:1005A000C40ED51ECC15DD0569F06991D701ED911A
:1005B000FC910190F081E02DC7010995F3CF642FE4
:1005C0000E946902C801DF91CF911F910F91FF90A6
:1005D000EF90DF90CF900895CF93DF931F92CDB728
:1005E000DEB7698320913D062223D1F020913A069F
:1005F000203240F021E030E0FC013383228380E0B0
:1006000090E015C080913B06E82FF0E0E257FA4FEA
:10061000998190838F5F80933B0680933A0605C053
:1006200061E0CE0101960E94690281E090E00F90A6
:10063000DF91CF910895089580E090E008950E94A1
:10064000B31CCF93DF93EC0160E08E810E94E1093F
:1006500061E08E810E94E10960E08E810E94E109E3
:100660008BE891E00197F1F7DF91CF9108950F9317
:100670001F930E94A40A8B019C0180918A0590918E
:100680008B05A0918C05B0918D05B901A801481B7F
:10069000590B6A0B7B0B4C3451056105710558F001
:1006A0008091C8016091100190E0019670E00E9475
:1006B0004E1A8093C80100938A0510938B052093EE
:1006C0008C0530938D051F910F9108951F920F9205
:1006D0000FB60F9211242F933F934F935F936F9315
:1006E0007F938F939F93AF93BF93EF93FF93E0918B
:1006F0000201F09103010995FF91EF91BF91AF9134
:100700009F918F917F916F915F914F913F912F9129
:100710000F900FBE0F901F9018951F920F920FB65B
:100720000F9211242F933F934F935F936F937F9377
:100730008F939F93AF93BF93EF93FF93E09100014B
:10074000F09101010995FF91EF91BF91AF919F91B8
:100750008F917F916F915F914F913F912F910F906A
:100760000FBE0F901F901895EF92FF920F931F935B
:10077000CF93DF938C017B01C0E0D0E0F701EC0F59
:10078000FD1F6491662361F0D801ED91FC91019009
:10079000F081E02DC8010995892B11F02196EECF4B
:1007A000CE01DF91CF911F910F91FF90EF900895AF
:1007B0001F920F920FB60F9211242F933F934F93D6
:1007C0005F936F937F938F939F93AF93BF93EF93B9
:1007D000FF938EE396E00E94C401FF91EF91BF91D9
:1007E000AF919F918F917F916F915F914F913F91C9
:1007F0002F910F900FBE0F901F9018951F920F9280
:100800000FB60F9211242F938F939F93EF93FF9323
:10081000E0914E06F0914F068081E0915406F091F0
:10082000550682FD12C09081809157068F5F8F73AD
:1008300020915806821751F0E0915706F0E0E25CF3
:10084000F94F958F8093570601C08081FF91EF91FA
:100850009F918F912F910F900FBE0F901F90189521
:100860004F925F926F927F928F929F92AF92BF92C0
:10087000CF92DF92EF92FF920F931F93CF93FC01E1
:10088000349601E010E020E030E004171507260759
:1008900037079CF580809180A280B380DF016801DA
:1008A00079011C141D041E041F04ACF47E906E908C
:1008B0005E904E9084149504A604B70464F41496D4
:1008C0004D925D926D927C921797C1E0CC1AD1083F
:1008D000E108F108E6CFCC0CDD1CCC0CDD1CDC0102
:1008E000AC0DBD1D8D929D92AD92BC9213970F5F82
:1008F0001F4F2F4F3F4F3496C8CFCF911F910F916D
:10090000FF90EF90DF90CF90BF90AF909F908F902F
:100910007F906F905F904F9008951F920F920FB647
:100920000F9211242F933F934F935F936F937F9375
:100930008F939F93AF93BF93EF93FF938091B900F1
:10094000887F803609F49CC068F5883209F45BC062
:1009500090F4803109F454C038F4882309F4F6C0C7
:10096000883009F44DC0F6C0883109F44CC080329B
:1009700009F45DC0EFC0803409F468C048F48033E6
:1009800009F455C0883309F0E5C080933706D8C014
:10099000803509F44FC0883509F45DC0883409F00A
:1009A000D9C0D6C0883909F4C7C0A8F4883709F47B
:1009B00067C038F4883609F463C0803709F460C032
:1009C000C9C0883809F4B8C0803909F45FC08038DC
:1009D00009F0C0C05BC0803B09F486C038F4803A9F
:1009E00009F466C0883A09F47FC0B4C0803C09F4B9
:1009F000A7C0883C09F4A4C0883B09F48AC0AAC0F7
:100A00008091340610C09091360680913506981773
:100A100070F5E091360681E08E0F80933606F0E0A7
:100A2000ED5EF94F80818093BB0085EC86C080939A
:100A300037068EC0E091360681E08E0F8093360631
:100A40008091BB00F0E0ED5EF94F80839091360617
:100A5000809135066EC0E091360681E08E0F80935E
:100A600036068091BB00F0E0ED5EF94F8083809107
:100A7000380681116DC081E08093330684EA61C03D
:100A800083E0809339061092F005CFCF8091F00576
:100A9000803208F051C0E091F00581E08E0F809324
:100AA000F0058091BB00F0E0E053FA4F8083BDCFAA
:100AB00085EC8093BC00109239068091F00580325D
:100AC00030F4E091F005F0E0E053FA4F10826091CD
:100AD000F00570E0E091C401F091C50180ED95E072
:100AE00009951092F00536C084E080933906109283
:100AF000CF051092CE05E091C601F091C70109958E
:100B00008091CE05811105C081E08093CE051092C1
:100B1000AE05E091CF0581E08E0F8093CF05F0E028
:100B2000E255FA4F80818093BB009091CF05809170
:100B3000CE05981708F479CF85E88093BC000AC0E9
:100B400085EC8093BC001092390604C010923706E1
:100B50000E945F02FF91EF91BF91AF919F918F91A2
:100B60007F916F915F914F913F912F910F900FBEA9
:100B70000F901F90189530913A06313208F04AC014
:100B8000809139068111FCCF90913C0622E02093A0
:100B90003906609338062FEF2093370610923606F9
:100BA00030933506EEE8F5E0A3E1B6E020E0321739
:100BB00021F041914D932F5FFACF1092340620918E
:100BC0003406990F922B909334069091330691300E
:100BD00061F410923306909134069093BB0090918B
:100BE000BC0093FDF8CF95EC01C095EE9093BC004E
:100BF000909139069230E1F3909137069F3F79F05A
:100C000080913706803241F080913706803331F091
:100C100084E005C081E003C082E001C083E010925F
:100C20003B0610923A0610923D060895CF92DF924D
:100C3000EF92FF920F931F93CF93DF936C017C0190
:100C400087E0E80EF11CC0E0D0E0062F10E0B8010C
:100C50000C2E02C0759567950A94E2F76170F70152
:100C600081917F010E94E1092196C430D10579F775
:100C7000C601DF91CF911F910F91FF90EF90DF9010
:100C8000CF900C942103CF92DF92EF92FF920F93BB
:100C90001F93CF93DF93EC01F62E642F8C810E947B
:100CA000E1098D818F3F19F060E00E94E1098F8595
:100CB0000F2D10E084FF25C06E0187E0C80ED11C07
:100CC000E12CF12CB8010E2C02C0759567950A94A1
:100CD000E2F76170F60181916F010E94E109FFEF77
:100CE000EF1AFF0A88E0E816F10461F7CE01DF9100
:100CF000CF911F910F91FF90EF90DF90CF900C94C8
:100D00002103B80184E0759567958A95E1F7CE01D6
:100D10000E9416066F2DCE01DF91CF911F910F918A
:100D2000FF90EF90DF90CF900C94160641E00E9468
:100D3000430681E090E008958F929F92AF92BF9218
:100D40000F931F93CF93DF93CDB7DEB7A1970FB665
:100D5000F894DEBF0FBECDBF19A2423008F44AE0BE
:100D60008E010F5D1F4F842E912CA12CB12CA5015B
:100D700094010E94621AE62FB901CA0101501109BB
:100D8000EA3014F4E05D01C0E95CD801EC93232B58
:100D9000242B252B61F70115110571F0F801019045
:100DA0000020E9F73197AF01401B510BB80184E1F6
:100DB00097E00E94530102C080E090E0A1960FB638
:100DC000F894DEBF0FBECDBFDF91CF911F910F9181
:100DD000BF90AF909F908F90089540E0682F84E17E
:100DE00097E00C94430681E00E94ED068BE39FE1BF
:100DF0000197F1F70895CF93DF93823028F0909117
:100E00002307986090932307809327071092280761
:100E100080E48093290780E180932A0780E580930E
:100E20002B0761E0809118070E942E0A8091190714
:100E30008F3F19F061E00E942E0A61E080911A074D
:100E40000E942E0AC4E1D7E09E01245137408091D0
:100E5000230784FD03C084E090E002C088E090E0B6
:100E60002196281739072CF461E08E810E942E0A02
:100E7000EBCF8BE39DE00197F1F760E080911807DD
:100E80000E94E10960E080911A070E94E1098091C7
:100E900019078F3F19F060E00E94E1098091230754
:100EA00084FD20C063E084E197E00E941606CBE455
:100EB000D6E4CE010197F1F763E084E197E00E9468
:100EC00016062197F1F763E084E197E00E94160689
:100ED00083E592E00197F1F762E084E197E00E94F8
:100EE000160615C080620E94ED068BE496E4019719
:100EF000F1F78091230780620E94ED0683E592E07E
:100F00000197F1F78091230780620E94ED0680919E
:100F1000230780620E94ED0684E0809324078CE022
:100F20000E94ED060E94F30682E08093250786E08A
:100F3000DF91CF910C94ED061F93CF93DF93142F85
:100F400091E090933D0680933C0610923B061092F0
:100F50003A06CDEED6E088819981DC01ED91FC91D5
:100F60000190F081E02D099588819981DC01ED9156
:100F7000FC910190F081E02D612F099561E088815D
:100F80009981DF91CF911F910C94BB059091390607
:100F90009111FCCF91E090933906909338062FEF92
:100FA0002093370610923606260F2093350690932D
:100FB000340690913406880F892B809334068091F3
:100FC0003306813061F410923306809134068093A9
:100FD000BB008091BC0083FDF8CF85EC01C085EE9D
:100FE0008093BC00809139068130E1F38091360610
:100FF000861710F460913606A3E1B6E0E3EFF5E062
:1010000080E0861721F09D9191938F5FFACF08952C
:10101000CF93C82F81E080933D06C0933C06109289
:101020003B0610923A068091ED069091EE06DC01A7
:10103000ED91FC910190F081E02D099560E08091A7
:10104000ED069091EE060E94BB0561E08C2F0E9498
:10105000C6071092F2058093F1058091ED069091FC
:10106000EE06DC01ED91FC910084F185E02D0995FF
:10107000892B61F08091ED069091EE06DC01ED91F7
:10108000FC910284F385E02D099501C080E0CF91A9
:101090000895FF920F931F93CF93DF93F82ED62FCF
:1010A000C42F0DEE16E0682FF80182810E94080817
:1010B0008D23482F4C2B6F2DF8018281DF91CF912A
:1010C0001F910F91FF900C949C07482F6CEF8AE0C2
:1010D0000C944908482F63EE8AE00C944908CF939A
:1010E000DF93BC018EE396E00E94B403EC0142E082
:1010F00050E061EC71E08EE396E00E9453018C0FAA
:101100009D1FDF91CF910895643008F063E09091C6
:101110002707691710F06FEF690FE62FF0E0EC5E1C
:10112000F84F9489890F80680C94ED06CF92DF9276
:10113000EF92FF926C01990FEE08FF08F7FE16C0C0
:1011400041E06DE284E197E00E944306662777273D
:10115000CB016C197D098E099F094AE00E949C060B
:101160000196FF90EF90DF90CF9008954AE0C7017D
:10117000B601FF90EF90DF90CF900C949C063FB7A4
:10118000F8948091310790913207A0913307B09184
:10119000340726B5A89B05C02F3F19F00196A11D65
:1011A000B11D3FBFBA2FA92F982F8827820F911DFD
:1011B000A11DB11DBC01CD0142E0660F771F881F44
:1011C000991F4A95D1F708958F929F92AF92BF923F
:1011D000CF92DF92EF92FF920F931F93CF93DF9303
:1011E00066E08091EF060E940808182F64E0809165
:1011F000EF060E940808811709F4D3C0C82FD0E079
:10120000C11BD109D7FDA0962091F0062C9FC001EB
:101210002D9F900D11248C01000F111F080F191F15
:1012200081E080933D0687E580933C0610923B0663
:1012300010923A068091ED069091EE06DC01ED9158
:10124000FC910190F081E02D67E0099561E08091CB
:10125000ED069091EE060E94BB0530E2C32ED12C24
:10126000101611060CF09FC0013211056CF0609150
:10127000F006B3E06B9FB0011124C6010E944E1A24
:101280007601E81AF90A01C078010E191F096E2DBE
:10129000613208F060E287E50E94C6071092F2050D
:1012A0008093F1051E141F04DCF6809112078F5FF6
:1012B000837080931207B12C8091ED069091EE0619
:1012C000DC01ED91FC910284F385E02D0995A82EB7
:1012D0008091ED069091EE06DC01ED91FC91028487
:1012E000F385E02D0995982E8091ED069091EE06FC
:1012F000DC01ED91FC910284F385E02D0995882EA7
:10130000E0911207B4E0EB9FF0011124E351F94F93
:10131000D501C401A370BB2785839683A783B087BB
:101320008091F0068230A0F18091ED069091EE065A
:10133000DC01ED91FC910284F385E02D0995A82E46
:101340008091ED069091EE06DC01ED91FC91028416
:10135000F385E02D0995982E8091ED069091EE068B
:10136000DC01ED91FC910284F385E02D0995882E36
:10137000E0911207B4E0EB9FF0011124E350F94F24
:10138000D501C401A370BB2785839683A783B0874B
:101390002091F0063DEF3203C0011124E80EF91E42
:1013A00081CFC0E0D0E0CE01DF91CF911F910F91AE
:1013B000FF90EF90DF90CF90BF90AF909F908F9075
:1013C000089590E0FC01E85CFD4F2491FC01EC5D88
:1013D000FD4F3491FC01E05FFD4FE491EE2309F4F1
:1013E0003CC0222339F1233091F038F42130A9F0A8
:1013F000223001F584B58F7D12C0273091F028305E
:10140000A1F02430B9F4809180008F7D03C08091D9
:1014100080008F77809380000DC084B58F7784BD66
:1014200009C08091B0008F7703C08091B0008F7D9C
:101430008093B000F0E0EE0FFF1FEA5FFD4FA59133
:10144000B4919FB7F894611104C08C913095382302
:1014500002C0EC913E2B3C939FBF0895CF93DF9346
:1014600090E0FC01EC5DFD4F2491FC01E05FFD4F3D
:101470008491882361F190E0880F991FFC01E4506A
:10148000FE4FC591D491FC01EA5FFD4FA591B49147
:10149000611109C09FB7F8948881209582238883C1
:1014A000EC912E230BC0623061F49FB7F8948881D1
:1014B000322F309583238883EC912E2B2C939FBF62
:1014C00006C08FB7F894E8812E2B28838FBFDF9159
:1014D000CF9108958F929F92AF92BF92CF92DF9259
:1014E000EF92FF926B017C010E94BF084B015C01EF
:1014F000C114D104E104F104F1F00E94BF08DC0141
:10150000CB0188199909AA09BB09883E9340A10516
:10151000B10570F321E0C21AD108E108F10888EEA4
:10152000880E83E0981EA11CB11CC114D104E104F3
:10153000F10419F7DDCFFF90EF90DF90CF90BF90CF
:10154000AF909F908F9008952FB7F89460912D07DA
:1015500070912E0780912F07909130072FBF08952B
:10156000CF92DF92EF92FF920E94A40A6B017C015E
:101570000E94A40ADC01CB018C199D09AE09BF09A8
:101580008B3F9105A105B10558F40E94E40801972D
:1015900049F061E070E080E090E00E946A0AE8CFE4
:1015A00080E001C081E0FF90EF90DF90CF90089540
:1015B0001F920F920FB60F9211242F933F938F9388
:1015C0009F93AF93BF9380912D0790912E07A09189
:1015D0002F07B091300730912C0723E0230F2D37D0
:1015E00020F40196A11DB11D05C026E8230F029627
:1015F000A11DB11D20932C0780932D0790932E07DA
:10160000A0932F07B0933007809131079091320754
:10161000A0913307B09134070196A11DB11D8093AD
:10162000310790933207A0933307B0933407BF91EB
:10163000AF919F918F913F912F910F900FBE0F907F
:101640001F901895CF93DF93CDB7DEB7CA50D14026
:101650000FB6F894DEBF0FBECDBF789484B582601C
:1016600084BD84B5816084BD85B5826085BD85B546
:10167000816085BD80916E00816080936E001092C4
:10168000810080918100826080938100809181003F
:1016900081608093810080918000816080938000D0
:1016A0008091B10084608093B1008091B00081602E
:1016B0008093B00080917A00846080937A0080915A
:1016C0007A00826080937A0080917A0081608093B2
:1016D0007A0080917A00806880937A001092C1002D
:1016E00061E083E00E942E0A61E084E00E942E0AFD
:1016F00061E08EE00E942E0A61E08FE00E942E0AD7
:1017000061E080E10E942E0A82E00E94FB0662E016
:1017100082E00E942E0A87E393E090930101809378
:101720000001809169008C7F826080936900E89A53
:10173000E0914E06F0914F0682E08083E0914A06E8
:10174000F0914B061082E0914C06F0914D0680E13D
:10175000808310925606E0915206F091530686E07F
:101760008083E0915006F0915106808180618083F2
:10177000E0915006F0915106808188608083E0916D
:101780005006F0915106808180688083E091500678
:10179000F091510680818F7D80838BED96E0909350
:1017A000EE068093ED061092F2051092F10510926C
:1017B0003B0610923A061092390681E08093380673
:1017C0001092330661E082E10E94E10961E083E169
:1017D0000E94E1098091B9008E7F8093B9008091C9
:1017E000B9008D7F8093B90088E48093B80085E4C8
:1017F0008093BC0081E992E09093C7018093C60179
:1018000082E992E09093C5018093C4018CE08093BB
:10181000B80087E58093EF066FEF0E9408088531D6
:1018200011F00C9446176EEF8091EF060E940808A5
:101830008093F10688E690E00E946F0840E46FEB29
:1018400089E00E9449080E94A40A6B017C010E9461
:10185000A40ADC01CB018C199D09AE09BF098436AD
:101860009105A105B10570F469E08091EF060E9431
:10187000080886FF07C061E070E080E090E00E9409
:101880006A0AE5CF40E46FE188E00E94490840E140
:101890006FEE88E00E94490847E068EF89E00E9407
:1018A000490883E08093F00640E26FE98AE00E94F5
:1018B00049088CE00E946A0883E00E9465084FE1B5
:1018C0006CE08091EF060E949C074FE16DE08091F3
:1018D000EF060E949C074FE160E18091EF060E94B5
:1018E0009C0741E068EF81E10E94490840E26FE80F
:1018F00081E10E94490843E068EF82E10E944908C3
:1019000040E064E08091EF060E949C0740E065E0C3
:101910008091EF060E949C0740E066E08091EF0610
:101920000E949C074AE06CE08091EF060E949C07B1
:101930008E0103571F4FC352DF4F19830883CD5DBC
:10194000D0400DE810E00C0F1D1F045C1F4FCF5F4F
:10195000DE4F19830883C150D1408091C801833084
:1019600009F490C008F03FC0813009F452C08230C1
:1019700011F00C941E170E94F30660E080E00E94B4
:10198000840864EB71E084E197E00E94B40361E0B5
:1019900080E00E94840869EA71E084E197E00E9497
:1019A000B40368EB7BE080E090E00E946A0A0E944A
:1019B000F30660E080E00E9484086EE971E084E153
:1019C00097E00E94B40361E080E00E9484086DE823
:1019D00071E084E197E00E94B40368E873E180E07D
:1019E00090E00C944017853011F40C94E11608F443
:1019F000F0C2863011F00C941E17109288051092D8
:101A0000870510928605109285051092840583E063
:101A1000DDC20E94F30660E080E00E9484086BEE65
:101A200071E084E197E00E94B40361E080E00E94ED
:101A3000840861EE71E084E197E00E94B40368E8F5
:101A400073E180E090E00E946A0A0E94F30660E081
:101A500080E00E94840860ED71E084E197E00E94DC
:101A6000B40361E080E00E94840864EC71E084E1EA
:101A700097E00E94B40368E873E180E090E00E9480
:101A80006A0AA1C261E083E00E94E10960E084E0AB
:101A90000E94E10980918905811122C00E94F3060C
:101AA00060E080E00E94840860E871E084E197E0F3
:101AB0000E94B40361E080E00E94840862E771E064
:101AC00084E197E00E94B40368E873E180E090E06D
:101AD0000E946A0A0E94F30681E080938905DACFAA
:101AE0000E94B00A882369F0E091120714E0E19F98
:101AF000F0011124E350F94F85809680A780B084CF
:101B000003C0812C912C54018092330290923402B4
:101B1000A0923502B09236026090180270901902BD
:101B200070921702609216024091120250911302B5
:101B30006091140270911502D501C401AA27BB2738
:101B40002FE0880F991FAA1FBB1F2A95D1F7841B6E
:101B5000950BA60BB70B34E0B595A7959795879590
:101B60003A95D1F7840F951FA61FB71F80931202D5
:101B700090931302A0931402B093150240910902AE
:101B8000C152DF4F4883CF5DD040442E512CF2012B
:101B9000EE0FFF1FE753FE4F5FE0B595A7959795B2
:101BA00087955A95D1F7B401681B790B71836083CF
:101BB000F2013B97EF71FF27EE0FFF1FE753FE4F38
:101BC000C080D1800D2C000CEE08FF087CE0CC0C0E
:101BD000DD1CEE1CFF1C7A95D1F7E7E12E2EE1E02B
:101BE0003E2E40E050E0820106511109D801A40FB9
:101BF000B51FAF71BB27AA0FBB1FA753BE4FF20182
:101C0000E41BF50BEF71FF27EE0FFF1FE753FE4FAD
:101C10008D919C91A081B181A80FB91FF1012191F3
:101C200031911F010E94A31AC60ED71EE81EF91E8D
:101C30004F5F5F4F4B305105C9F6C152DF4F1881DE
:101C4000CF5DD0401F5F1F71109309020FE0F59424
:101C5000E794D794C7940A95D1F79601D0921902C8
:101C6000C092180277FE1EC0D7FC1CC080911002E3
:101C70009091110240910E0250910F0261E070E0CC
:101C800070930D0260930C0210920B0210920A02E4
:101C90001092110210921002841B950B4597833D00
:101CA000934008F060E0161417048CF41216130623
:101CB00074F010920D0210920C0281E090E090936B
:101CC0000B0280930A0210920F0210920E0241E062
:101CD00050E06216730614F040E050E080910C0270
:101CE00090910D0284239523892B21F0D09211022B
:101CF000C092100281E090E02615370514F080E0D4
:101D000090E020910A0230910B0282239323892BC9
:101D100021F0D0920F02C0920E02662309F4DAC0BD
:101D20000E94A40A00912F021091300220913102EA
:101D3000309132026B017C01C01AD10AE20AF30A27
:101D4000C0922B02D0922C02E0922D02F0922E0231
:101D50000E94A40A60932F02709330028093310294
:101D600090933202C701B6010E941E1820E030E0B5
:101D70004AE754E40E948C199B01AC0160E070E0DA
:101D800080E792E40E948C196B017C0120E030E036
:101D900046E153E40E94171887FF9CC020E030E022
:101DA00040EF51E4C701B6010E942D1A18160CF03D
:101DB00091C010912A02111108C0C0922602D0923F
:101DC0002702E0922802F09229021F5F13701093FD
:101DD0002A024090260250902702609028027090BC
:101DE0002902A7019601C301B2010E941F196B01CC
:101DF0007C0120E030E040EA51E40E9417181816F8
:101E000084F020E030E040EA51ECC701B6010E94C6
:101E10002D1A87FD06C081E0809325021330E1F57D
:101E200003C01092250238C0109124021F5F812F39
:101E300090E09C01265E3D4F7901C301B2010E94F2
:101E4000FE19D7016C93812F6AE00E94421A909389
:101E50002402EAE1F2E024E232E080E090E0419105
:101E6000840F911D2E173F07D1F76AE070E00E94A2
:101E70004E1A685F7F4F7093870560938605809147
:101E80000E0190E001968F70992780930E01892BA7
:101E900019F487E080930E01809186059091870563
:101EA00020910C0130910D012C01421A530A92012C
:101EB0002B5F3F4F2B30310530F4009721F02091FC
:101EC00088052F5F01C021E02093880590930D01C4
:101ED00080930C0100E5801603EC9006A104B10488
:101EE000B4F40E94F30660E080E00E94840866ED8E
:101EF00070E084E197E00E94B40364EF71E080E059
:101F000090E00E946A0A10928705109286050E944E
:101F1000F30660E080E00E94840862ED70E084E1F6
:101F200097E00E94B40361E081E00E948408809100
:101F30008605909187050E94960880E40E94ED0630
:101F400014E0E12E11E0F12E0CE011E0D7016D91CB
:101F50007D0184E197E00E9496060E151F05B1F7FA
:101F600060E080910E010E94840860E084E197E0C7
:101F70000E94960680918805833308F483C70E94E7
:101F8000F30660E080E00E94840861E671E084E18D
:101F900097E00E94B40361E080E00E9484086BE552
:101FA00071E084E197E00E94B403809186059091EE
:101FB00087050E94960868EB7BE080E090E00E9435
:101FC0006A0A109289058091C8018F5F8093C801C9
:101FD00059C780918905811122C00E94F30660E0F3
:101FE00080E00E9484086EE471E084E197E00E9442
:101FF000B40361E080E00E94840866E471E084E15B
:1020000097E00E94B40368EB7BE080E090E00E94E0
:102010006A0A0E94F30681E080938905DACF8E0177
:10202000095B1F4FCD51DF4F19830883C35ED0403A
:1020300006541109C951DF4F19830883C75ED04088
:102040007801CD51DF4F08811981C35ED040809166
:10205000120790911307891B87FD8C5F811103C0C4
:102060000E94E408F4CF0E94B00A882369F0E0914E
:10207000120724E0E29FF0011124E351F94F85811A
:102080009681A781B08503C080E090E0DC01F70174
:10209000819391937F010E94B00A882369F0E091B7
:1020A000120724E0E29FF0011124E350F94F8581EB
:1020B0009681A781B08503C080E090E0DC01F80143
:1020C000819391938F010E94B00A882369F0E09177
:1020D000120724E0E29FF0011124E350F94F8581BB
:1020E0009681A781B08503C080E090E0DC01883A4A
:1020F0009146A105B105B4F40E94F30660E080E0CA
:102100000E94840867EE70E084E197E00E94B403C7
:1021100064EF71E080E090E00E946A0A1092850509
:10212000109284058091130790911207981B97FDD8
:102130009C5F992321F08F5F837080931307C352B4
:10214000DF4F48805980CD5DD0400415150509F05A
:102150007ECFCD51DF4FE881F981C35ED04060E092
:1021600070E0CB0121913191620F731F811D911D90
:10217000C352DF4F68807980CD5DD040E615F7050A
:1021800089F723E230E040E050E00E94621A07EC59
:1021900013E0C551DF4F19830883CB5ED040F801AF
:1021A000CD51DF4FA881B981C35ED0408D919D9103
:1021B00069017A01C81AD90AE108F108C192D192DD
:1021C000E192F19214E0E335F10781F7B7E4EB2EE9
:1021D000B5E0FB2E07EC13E0D8014D915D916D91B8
:1021E0007C91139714968D919D910D90BC91A02D8B
:1021F000480F591F6A1F7B1FF80180859185A285B2
:10220000B385480F591F6A1F7B1F84859585A68556
:10221000B7852A013B01480E591E6A1E7B1EC30169
:10222000B20124E030E040E050E00E94841AD8017E
:102230002D933D934D935D938D01EA16FB0661F658
:1022400047E555E0E7ECF3E060E070E0CB01019199
:10225000119121913191600F711F821F931F4E17B1
:102260005F07A9F724E630E040E050E00E94841ABE
:1022700069017A012E313105410551055CF02D339C
:102280003105410551055CF0FCE3CF2ED12CE12C4A
:10229000F12C05C0AEE1CA2ED12CE12CF12C8E011F
:1022A00003571F4FC950DF4F19830883C75FD040C2
:1022B000F8011192119211921192CF5FDE4F488076
:1022C0005980C150D140E415F50599F7C152DF4F4F
:1022D000188219821A821B82CF5DD04041E050E003
:1022E00060E070E01A01CA01880F991F880F991FDA
:1022F000FC01E953FC4F80809180A280B380C81418
:10230000D904EA04FB040CF0B0C0FC01ED53FC4F0F
:1023100080819181A281B38188159905AA05BB05A9
:102320000CF0A3C0FA01EE0FFF1FEE0FFF1FE553E5
:10233000FC4F01E010E020E030E0C151DF4F0883A6
:1023400019832A833B83CF5ED040C151DF4F888100
:102350009981AA81BB81CF5ED040840F951FA61FB3
:10236000B71F84369105A105B105E8F4419051905D
:102370006190719084149504A604B704A1F4C1512E
:10238000DF4F88819981AA81BB81CF5ED0400196C1
:10239000A11DB11DC151DF4F88839983AA83BB83DF
:1023A000CF5ED040D2CFC151DF4FE881F981CF5EFF
:1023B000D040E20DF31DEE0FFF1FEE0FFF1FE9539C
:1023C000FC4F4080518062807380481459046A0435
:1023D0007B044CF083369105A105B1050CF04BC090
:1023E000AC01BD017FCFC152DF4F088119812A8125
:1023F0003B81CF5DD0400F3011052105310554F7E9
:10240000F801EE0FFF1FEE0FFF1F21E030E02C0F51
:102410003D1FE20FF31FE457FF4F40835183628358
:102420007383C151DF4F88819981AA81BB81CF5EBF
:10243000D0400196A11DB11D840F951FA61FB71F87
:10244000C152DF4F488159816A817B81CF5DD04085
:102450004F5F5F4F6F4F7F4FC152DF4F48835983AC
:102460006A837B83CF5DD040B5CFDB01CA01019683
:10247000A11DB11DAFCF6DE870E06C0F7D1F6C5FCB
:102480007F4FC151DF4F79836883CF5ED04041E0F9
:1024900050E060E070E0C152DF4F88819981AA81ED
:1024A000BB81CF5DD040481759076A077B070CF006
:1024B00063C0C151DF4FA881B981CF5ED040CD90BC
:1024C000DD90ED90FC90D601AA0FBB1FAA0FBB1F99
:1024D000A953BC4F4D905D906D907C90C151DF4FE2
:1024E00028803980CF5ED040DB01CA01F101B29073
:1024F000A290929082901F019401220F331F220F0D
:10250000331F29533C4FF90100811181228133810E
:1025100004151505260537054CF4F10184829582D2
:10252000A682B7820197A109B10901F7880F991F07
:10253000880F991F44244394512C4C0E5D1E840D2A
:10254000951DDC01A457BF4FCD92DD92ED92FC9218
:1025500013974F5F5F4F6F4F7F4FC151DF4F088120
:102560001981CF5ED0400C5F1F4FC151DF4F1983DF
:102570000883CF5ED0408FCF9E0123573F4F8FEF10
:102580009FEFDC010196A11DB11D6C017D01AC0125
:10259000BD0100E010E01901E4E02E1A3108C1523B
:1025A000DF4F488059806A807B80CF5DD0404415E2
:1025B0005505660577058CF02C5F3F4F8C159D0502
:1025C000AE05BF050CF07DC0C152DF4FC882D98275
:1025D000EA82FB82CF5DD040D5CFF901E00FF11F39
:1025E0006080718082809380CD50DF4F68827982D5
:1025F0008A829B82C35FD0400097A105B10571F02C
:10260000F10180809180A280B380C151DF4F888228
:102610009982AA82BB82CF5ED0400CC044244A94E7
:10262000542C3201C151DF4F488259826A827B8229
:10263000CF5ED040CD50DF4F88809980AA80BB808C
:10264000C35FD040C151DF4F488059806A807B8092
:10265000CF5ED04084189508A608B708240135013C
:10266000E4E04E0E511C611C711CF9E04F16510440
:1026700061047104F8F0F601EE0FFF1FEE0FFF1F6B
:1026800044244394512C4C0E5D1EE40DF51DE4577B
:10269000FF4FCD50DF4F688079808A809B80C35F79
:1026A000D0406082718282829382EFEFCE1ADE0A7E
:1026B000EE0AFE0A4F5F5F4F6F4F7F4F0C5F1F4F59
:1026C0006ECFB701A601CE0183579F4F0E94300401
:1026D000FFE0CF16D104E104F1042CF06FE0C62E28
:1026E000D12CE12CF12C47E352E0CD51DF4FA881F2
:1026F000B981C35ED0408D919D91CD51DF4FB9839B
:10270000A883C35ED040A0E0B0E0C551DF4FE881B0
:10271000F981CB5ED04081939193A193B193C55140
:10272000DF4FF983E883CB5ED040C951DF4FA881EA
:10273000B981C75ED0408D919D91C951DF4FB9835A
:10274000A883C75ED040A0E0B0E0FA0181939193E6
:10275000A193B193AF01C352DF4F48805980CD5D43
:10276000D040CD51DF4F68807980C35ED0404614A1
:10277000570409F0BACFFE01E753FF4FCF0144964B
:1027800011921192119211928E179F07C9F7FE01B3
:10279000E357FF4F80E090E0DC018C159D05AE050E
:1027A000BF0571F04191519161917191453651058B
:1027B000610571050CF091C20196A11DB11DEDCF0F
:1027C000C750DF4F188219821A821B82C95FD0401E
:1027D000C152DF4F188219821A821B82CF5DD0400E
:1027E000C12CD12C7601CD51DF4F188219821A826B
:1027F0001B82C35ED0408C019D010150110921094B
:102800003109C350DF4F088319832A833B83CD5F8F
:10281000D040C350DF4F488059806A807B80CD5FB5
:10282000D040CD51DF4F88809980AA80BB80C35EA5
:10283000D04084149504A604B7040CF0D1C19501CE
:1028400084010F5F1F4F2F4F3F4FCD51DF4F088344
:1028500019832A833B83C35ED040C950DF4FA881D0
:10286000B981C75FD04014962D913D914D915C91F7
:102870001797C95FDE4F288339834A835B83C7502C
:10288000D1408D909D90AD90BD90C950DF4FB983E0
:10289000A883C75FD040281939094A095B09C95183
:1028A000DF4F288339834A835B83C75ED04024305F
:1028B0003105410551050CF4ACCF2401440C551CE5
:1028C000440C551CC151DF4F59824882CF5ED04025
:1028D00095018401212C312C412C512C32017A9408
:1028E000C551DF4F488259826A827B82CB5ED040DD
:1028F000C95FDE4F488159816A817B81C750D140D1
:1029000004171507260737070CF05DC0C151DF4FCC
:1029100068817981CF5ED040620D731DCD50DF4F4D
:1029200079836883C35FD040FB01E953FC4F80810A
:102930009181A281B381CD5FDE4F88839983AA8381
:10294000BB83C350D140C551DF4F488159816A8153
:102950007B81CB5ED040481759076A077B0784F418
:10296000C750DF4F088319832A833B83C95FD04058
:10297000C551DF4F88839983AA83BB83CB5ED04048
:10298000CD50DF4FE881F981C35FD040E95CFD4F56
:1029900080819181A281B381481659066A067B061F
:1029A00054F4C152DF4F088319832A833B83CF5DE0
:1029B000D0402C013D010F5F1F4F2F4F3F4F54E080
:1029C000250E311C95CFC151DF4FE881F981CF5ED3
:1029D000D040E953FC4F0081118122813381CD50D9
:1029E000DF4F088319832A833B83C35FD040C95FCD
:1029F000DE4F28803980C750D140220C331C220C76
:102A0000331CF101E953FC4F208131814281538114
:102A1000CD50DF4F688179818A819B81C35FD0402F
:102A2000261B370B480B590BC750DF4F6881798144
:102A30008A819B81C95FD040681979098A099B09FD
:102A40000E94321AC951DF4F288139814A815B8146
:102A5000C75ED0400E94841ACD50DF4F8881998193
:102A6000AA81BB81C35FD040820F931FA41FB51FF3
:102A7000C152DF4F08811981CF5DD040000F111F77
:102A8000000F111FF801E953FC4F40815181628111
:102A900073819A01AB01281B390B4A0B5B0BC301F5
:102AA000B2010E94321A2B013C0137E07594679401
:102AB000579447943A95D1F7141415041604170443
:102AC0000CF0A7CE75E0C716D104E104F1040CF0B8
:102AD000A0CEC151DF4FE881F981CF5ED040E95CE3
:102AE000FD4F80819181A281B381C151DF4F8883E5
:102AF0009983AA83BB83CF5ED040F101E95CFD4F8F
:102B00002081318142815381281B390B4A0B5B0B99
:102B1000C152DF4F688179818A819B81CF5DD0402E
:102B2000681979098A099B090E94321AC951DF4F35
:102B3000288139814A815B81C75ED0400E94841A16
:102B4000C151DF4F88819981AA81BB81CF5ED0407E
:102B5000820F931FA41FB51FF801E95CFD4F408150
:102B60005181628173819A01AB01281B390B4A0B99
:102B70005B0BC551DF4F688179818A819B81CB5E78
:102B8000D0400E94321A9B01AC01E7E05595479571
:102B900037952795EA95D1F721153105410551055E
:102BA00009F437CE8601000F111F000F111FA9EC89
:102BB000B0E0AC0FBD1F0A0F1B1FA4E6B0E00E94DF
:102BC000CE18A30192010E94841AF8012083318358
:102BD00042835383FFEFCF1ADF0AEF0AFF0A19CEB1
:102BE000B701A601CE0187539F4F0E943004D70141
:102BF000C601B595A795979587959C01220F331F20
:102C0000220F331F82309105A105B10554F10197C0
:102C1000A109B109880F991F880F991FA9ECB0E08D
:102C2000AC0FBD1FA80FB91FE9ECF0E0EC0FFD1FC2
:102C3000E20FF31F4D915D916D917C9180819181A7
:102C4000A281B3812A013B01480E591E6A1E7B1ED8
:102C5000C301B20122E030E040E050E00E94841A5B
:102C60000AC0E9ECF0E0EC0FFD1FE20FF31F20813A
:102C7000318142815381DA01C9010397A109B10968
:102C80008F359105A105B10540F5F901E15DFE4FD4
:102C9000408150E060E070E04093800550938105F2
:102CA000609382057093830580917F0504E0809F87
:102CB000F0011124E95AFA4F4083518362837383F0
:102CC0008F5F65E00E94421A90937F05E7E5F5E08B
:102CD0002BE635E080E090E00DC089E19CEFAFEF9E
:102CE000BFEF8093800590938105A0938205B093F8
:102CF00083051DC04191519161917191840F951F80
:102D00002E173F07B9F765E070E00E944E1A7093E6
:102D1000850560938405809188058F5F8093880581
:102D200080910F01815009F487E080930F010E9488
:102D3000F30661E080910F010E94840860E084E165
:102D400097E00E94960660E08CE00E94840862EEA4
:102D500070E084E197E00E94B40361E08DE00E949E
:102D6000840880918405909185050E949608809141
:102D700088058D3308F486C00E94F30660E080E089
:102D80000E94840864E371E084E197E00E94B40348
:102D900061E080E00E9484086DE271E084E197E0E8
:102DA0000E94B40380918405909185050E94960845
:102DB00068EB7BE080E090E00E946A0A1092880550
:102DC00000C960E083E00E94E10961E084E00E94C4
:102DD000E1090E94F30660E080E00E94840867E257
:102DE00071E084E197E00E94B40360E085E00E9416
:102DF000840880918405909185050E94960860E082
:102E000089E00E94840862E271E084E197E00E9418
:102E1000B40360E08DE00E94840880918605909163
:102E200087050E94960861E080E00E94840864E1C2
:102E300071E084E197E00E94B40324C061E083E084
:102E40000E94E10961E084E00E94E1090E94F3062A
:102E500060E080E00E94840864E071E084E197E033
:102E60000E94B40361E080E00E94840863EF70E098
:102E700084E197E00E94B40364EF71E080E090E0A9
:102E80000E946A0A0E9455020C94AD0C8FE990E0F2
:102E90000E946F08FFCF8091E7069091E8060C949E
:102EA000641B109241061092400688EE93E0A0E069
:102EB000B0E08093420690934306A0934406B093FB
:102EC000450625E931E030933F0620933E0625EC88
:102ED00030E030934B0620934A0624EC30E03093E8
:102EE0004D0620934C0620EC30E030934F062093A3
:102EF0004E0621EC30E0309351062093500622EC30
:102F000030E0309353062093520626EC30E03093A5
:102F100055062093540610925706109258061092A8
:102F2000590610925A061092DE061092DD06809322
:102F3000DF069093E006A093E106B093E20687EAED
:102F400091E09093DC068093DB06109217071092B5
:102F5000160789EB91E090931507809314078EE094
:102F6000809318078FEF8093190780E180931A07E9
:102F700089E080931B0788E080931C0787E080939B
:102F80001D0786E080931E0710921F0710922007EE
:102F900010922107109222071092230781E00E94CD
:102FA000FB061092E8061092E7061092EA061092CD
:102FB000E9061092EC061092EB0661E070E080E00A
:102FC00090E00E94ED1B009789F09093E8068093B3
:102FD000E7061092EA061092E9062091EB0630917E
:102FE000EC06232BC1F4FC01108215C08091E7068A
:102FF0009091E806009711F00E94641B1092E80679
:103000001092E7061092EC061092EB061092EA0678
:103010001092E90608951092EC061092EB0663EC0C
:1030200071E08091E7069091E8060C94C11C0E9423
:10303000591808F481E00895E89409C097FB3EF41C
:1030400090958095709561957F4F8F4F9F4F9923F5
:10305000A9F0F92F96E9BB279395F6958795779573
:103060006795B795F111F8CFFAF4BB0F11F460FF33
:103070001BC06F5F7F4F8F4F9F4F16C0882311F08B
:1030800096E911C0772321F09EE8872F762F05C09F
:10309000662371F096E8862F70E060E02AF09A953A
:1030A000660F771F881FDAF7880F9695879597F92F
:1030B0000895990F0008550FAA0BE0E8FEEF1616C9
:1030C0001706E807F907C0F012161306E407F5071C
:1030D00098F0621B730B840B950B39F40A2661F090
:1030E000232B242B252B21F408950A2609F4A14033
:1030F000A6958FEF811D811D089597F99F6780E840
:1031000070E060E008959FEF80EC089500240A9439
:103110001616170618060906089500240A941216B2
:103120001306140605060895092E0394000C11F4E5
:10313000882352F0BB0F40F4BF2B11F460FF04C092
:103140006F5F7F4F8F4F9F4F089557FD9058440FEB
:10315000551F59F05F3F71F04795880F97FB991FF6
:1031600061F09F3F79F087950895121613061406B3
:10317000551FF2CF4695F1DF08C016161706180640
:10318000991FF1CF86957105610508940895E8941B
:10319000BB2766277727CB0197F908950E9410195E
:1031A000A59F900DB49F900DA49F800D911D11249B
:1031B00008952F923F924F925F926F927F928F92DB
:1031C0009F92AF92BF92CF92DF92EF92FF920F93B6
:1031D0001F93CF93DF93CDB7DEB7CA1BDB0B0FB6C0
:1031E000F894DEBF0FBECDBF09942A88398848887D
:1031F0005F846E847D848C849B84AA84B984C88413
:10320000DF80EE80FD800C811B81AA81B981CE0F09
:10321000D11D0FB6F894DEBF0FBECDBFED010895EE
:10322000A29FB001B39FC001A39F700D811D112407
:10323000911DB29F700D811D1124911D089550584C
:10324000BB27AA270E9437190C9494180E9486184D
:1032500038F00E948D1820F039F49F3F19F426F4BD
:103260000C9483180EF4E095E7FB0C947D18E92F7D
:103270000E94A51858F3BA176207730784079507C9
:1032800020F079F4A6F50C94C7180EF4E0950B2EF7
:10329000BA2FA02D0B01B90190010C01CA01A001A8
:1032A0001124FF27591B99F0593F50F4503E68F103
:1032B0001A16F040A22F232F342F4427585FF3CF44
:1032C000469537952795A795F0405395C9F77EF415
:1032D0001F16BA0B620B730B840BBAF09150A1F05E
:1032E000FF0FBB1F661F771F881FC2F70EC0BA0FE4
:1032F000621F731F841F48F4879577956795B7956C
:10330000F7959E3F08F0B0CF9395880F08F0992766
:10331000EE0F9795879508950E94A0190C94941824
:103320000E948D1858F00E94861840F029F45F3FE3
:1033300029F00C947D1851110C94C8180C94831822
:103340000E94A51868F39923B1F3552391F3951BB7
:10335000550BBB27AA2762177307840738F09F5FB6
:103360005F4F220F331F441FAA1FA9F335D00E2E23
:103370003AF0E0E832D091505040E695001CCAF790
:103380002BD0FE2F29D0660F771F881FBB1F261753
:1033900037074807AB07B0E809F0BB0B802DBF012A
:1033A000FF2793585F4F3AF09E3F510578F00C94F9
:1033B0007D180C94C8185F3FE4F3983ED4F38695CB
:1033C00077956795B795F7959F5FC9F7880F911D1A
:1033D0009695879597F90895E1E0660F771F881F06
:1033E000BB1F621773078407BA0720F0621B730BB9
:1033F000840BBA0BEE1F88F7E09508950E94AD1874
:1034000088F09F5798F0B92F9927B751B0F0E1F0A5
:10341000660F771F881F991F1AF0BA95C9F714C055
:10342000B13091F00E94C718B1E008950C94C7180C
:10343000672F782F8827B85F39F0B93FCCF386958E
:1034400077956795B395D9F73EF4909580957095EB
:1034500061957F4F8F4F9F4F08950E94591808F430
:103460008FEF0895DB018F939F930E94CE18BF9139
:10347000AF91A29F800D911DA39F900DB29F900DC3
:1034800011240895991B79E004C0991F961708F03C
:10349000961B881F7A95C9F78095089597FB072E8C
:1034A00016F4009407D077FD09D00E94B21A07FCE9
:1034B00005D03EF4909581959F4F08957095619544
:1034C0007F4F0895A1E21A2EAA1BBB1BFD010DC060
:1034D000AA1FBB1FEE1FFF1FA217B307E407F507C4
:1034E00020F0A21BB30BE40BF50B661F771F881FA0
:1034F000991F1A9469F760957095809590959B0136
:10350000AC01BD01CF010895052E97FB1EF4009478
:103510000E949B1A57FD07D00E94621A07FC03D035
:103520004EF40C949B1A50954095309521953F4F41
:103530004F4F5F4F089590958095709561957F4F9F
:103540008F4F9F4F08950E941019332312F48A1B46
:103550009B0B0C94AD1A0E941019B7FF0895821BA3
:10356000930B0895AA1BBB1B51E107C0AA1FBB1FE9
:10357000A617B70710F0A61BB70B881F991F5A95FF
:10358000A9F780959095BC01CD010895EE0FFF1F1E
:103590000590F491E02D09940F931F93CF93DF933F
:1035A0008230910510F482E090E0E0913707F091CD
:1035B000380720E030E0A0E0B0E0309719F140811A
:1035C00051810281138148175907C8F08417950764
:1035D00069F4109731F012960C93129713961C937E
:1035E00027C0009337071093380722C021153105F3
:1035F00019F04217530718F49A01BD01EF01DF01DA
:10360000F801DBCF21153105F9F0281B390B2430E7
:10361000310580F48A819B816115710521F0FB01E0
:103620009383828304C09093380780933707FE0109
:10363000329644C0FE01E20FF31F81939193225012
:103640003109398328833AC02091350730913607F4
:10365000232B41F42091130130911401309336074C
:103660002093350720911101309112012115310568
:1036700041F42DB73EB74091150150911601241B1E
:10368000350BE0913507F0913607E217F307A0F408
:103690002E1B3F0B2817390778F0AC014E5F5F4FA8
:1036A0002417350748F04E0F5F1F5093360740939D
:1036B00035078193919302C0E0E0F0E0CF01DF9104
:1036C000CF911F910F910895CF93DF93009709F445
:1036D00081C0FC01329713821282A0913707B0910A
:1036E0003807109781F420813181820F931F209138
:1036F0003507309136072817390751F5F09336070B
:10370000E093350767C0ED0120E030E0CE17DF071A
:1037100040F44A815B819E0141155105F1F0EA01B7
:10372000F5CFD383C28340815181840F951FC81781
:10373000D90759F488819981840F951F0296918346
:1037400080838A819B81938382832115310529F4AB
:10375000F0933807E09337073DC0E901FB83EA8324
:1037600049915991C40FD51FEC17FD0761F4808171
:103770009181840F951F0296E90199838883828144
:1037800093819B838A83E0E0F0E012968D919C9177
:103790001397009719F0FD01DC01F7CF8D919C91F3
:1037A00011979D012E5F3F4F820F931F2091350788
:1037B000309136072817390769F4309729F41092A9
:1037C00038071092370702C013821282B09336076F
:1037D000A0933507DF91CF910895A0E0B0E0E3EF2B
:1037E000FBE10C94DD18EC01009721F4CB010E9461
:1037F000CC1AB4C0FC01E60FF71F9C01225031091E
:10380000E217F30708F4A8C0D9010D911C91119794
:1038100006171707B0F00530110508F49BC0C80162
:1038200004978617970708F495C002501109061BE4
:10383000170B019311936D937C93CF010E94641B2E
:1038400089C05B01A01AB10A4C01800E911EA091A3
:103850003707B0913807612C712CE12CF12C1097AF
:1038600009F446C08D919C911197A815B905B1F541
:103870006C0142E0C40ED11CCA14DB0478F14C0187
:103880008A189B08640142E0C40ED11C1296BC90B9
:1038900012971396AC91B5E0CB16D10440F0B282EA
:1038A000A38391828082D9016D937C9309C00E5FBE
:1038B0001F4F800F911FF90191838083EB2DFA2F09
:1038C000E114F10431F0D7011396FC93EE931297B3
:1038D00041C0F0933807E09337073CC0681679067B
:1038E00008F43C017D0112960D90BC91A02DB7CF3C
:1038F000809135079091360788169906E1F466168F
:103900007706C8F48091110190911201009741F45B
:103910008DB79EB74091150150911601841B950BF0
:10392000E817F907C8F4F0933607E0933507F90173
:10393000718360830FC0CB010E94CC1A7C01009779
:1039400059F0A801BE010E94B81CCE010E94641B60
:10395000C70104C0CE0102C080E090E0CDB7DEB761
:10396000EEE00C94F91881E090E0F8940C94C81CF7
:10397000FB01DC0102C001900D9241505040D8F78C
:103980000895FB01DC0101900D920020E1F70895FC
:1039900011E0C7E2D1E004C0FE010E94C61A2196E0
:0A39A000C832D107C9F7F894FFCF31
:1039AA00520152010000000A15150A04FFFF070719
:1039BA0007000039078000AC00410143029F035011
:1039CA000542075609640B3F0DB80EAC0F00105F95
:1039DA005F606060616161616162626262626363C9
:1039EA006363636364646464646464646464646491
:1039FA0064646461606060605F5F5F5E5E5E5D5DBF
:103A0A005D5C5C5C5B5A5959585756555453525130
:103A1A00504F4E4D4C4B4A49484746454544424112
:103A2A00403F3E3E3D3C3B3A3938383736353433F1
:103A3A000000000000E60153017D013302AE018C53
:103A4A0001A00100000000EC02BF021C039302B7B0
:103A5A0002A302940200000000960653011C031BF5
:043A6A00030D0A003E
:107E0000112484B714BE81FFF0D085E080938100F7
:107E100082E08093C00088E18093C10086E0809377
:107E2000C20080E18093C4008EE0C9D0259A86E02C
:107E300020E33CEF91E0309385002093840096BBD3
:107E4000B09BFECF1D9AA8958150A9F7CC24DD24C4
:107E500088248394B5E0AB2EA1E19A2EF3E0BF2EE7
:107E6000A2D0813461F49FD0082FAFD0023811F036
:107E7000013811F484E001C083E08DD089C08234E0
:107E800011F484E103C0853419F485E0A6D080C0E4
:107E9000853579F488D0E82EFF2485D0082F10E0AE
:107EA000102F00270E291F29000F111F8ED06801E7
:107EB0006FC0863521F484E090D080E0DECF843638
:107EC00009F040C070D06FD0082F6DD080E0C81688
:107ED00080E7D80618F4F601B7BEE895C0E0D1E017
:107EE00062D089930C17E1F7F0E0CF16F0E7DF06D8
:107EF00018F0F601B7BEE89568D007B600FCFDCFD4
:107F0000A601A0E0B1E02C9130E011968C91119780
:107F100090E0982F8827822B932B1296FA010C0160
:107F200087BEE89511244E5F5F4FF1E0A038BF0790
:107F300051F7F601A7BEE89507B600FCFDCF97BE46
:107F4000E89526C08437B1F42ED02DD0F82E2BD052
:107F50003CD0F601EF2C8F010F5F1F4F84911BD097
:107F6000EA94F801C1F70894C11CD11CFA94CF0C13
:107F7000D11C0EC0853739F428D08EE10CD085E9AC
:107F80000AD08FE07ACF813511F488E018D01DD067
:107F900080E101D065CF982F8091C00085FFFCCF94
:107FA0009093C60008958091C00087FFFCCF809118
:107FB000C00084FD01C0A8958091C6000895E0E648
:107FC000F0E098E1908380830895EDDF803219F02E
:107FD00088E0F5DFFFCF84E1DECF1F93182FE3DFCA
:107FE0001150E9F7F2DF1F91089580E0E8DFEE27F6
:047FF000FF270994CA
:027FFE00040479
:0400000300007E007B
:00000001FF
