:100000000C94E4010C9469040C9442040C94960A38
:100010000C94960A0C94960A0C940C020C940C0204
:100020000C940C020C940C020C940C020C940C0218
:100030000C940C020C940C020C940C020C940C0208
:100040000C949D110C940C020C9455050C942F05E6
:100050000C940C020C940C020C940C020C940C02E8
:100060000C94A00A0C940C020A3C2D20000A3C2D92
:10007000200041542B464143544F52595245534559
:100080005400415445002D2D2D2D2D2D2D2D2D2D80
:100090002D2D2D2D2D2D00415449002D2D2D2D2D93
:1000A0002D2D2D2D2D2D2D2D2D2D2D0041542B475A
:1000B0004150474554434F4E4E004154493D340052
:1000C0002A2A2A2A2A2A2A2A2A2A2A2A2A2A2A2A90
:1000D0002A2A2A2A2A2A2A2A2A2A2A2A2A2A005381
:1000E0007769746368696E6720746F204441544176
:1000F000206D6F646521004368616E6765204C4523
:100100004420616374697669747920746F204D4F5F
:10011000444500436F756C646E2774206661637498
:100120006F727920726573657400506572666F72C4
:100130006D696E67206120666163746F72792072E9
:10014000657365743A20004F4B2100436F756C64F2
:100150006E27742066696E6420426C7565667275E0
:1001600069742C206D616B652073757265206974EC
:10017000277320696E20436F4D6D616E44206D6F53
:100180006465202620636865636B20776972696EF9
:10019000673F00496E697469616C6973696E6720B5
:1001A00074686520426C75656672756974204C458B
:1001B000206D6F64756C653A20002D2D2D2D2D2D31
:1001C0002D2D2D2D2D2D2D2D2D2D2D2D2D2D2D2D5F
:1001D0002D2D2D2D2D2D2D2D2D2D2D2D2D2D2D2D4F
:1001E0002D2D2D2D2D2D2D2D2D2D0041646166726F
:1001F00075697420426C7565667275697420436F09
:100200006D6D616E64203C2D3E2044617461204D13
:100210006F6465204578616D706C6500506C61633A
:100220006520696E6465782066696E676572206F07
:100230006E207468652073656E736F7220776974C1
:100240006820737465616479207072657373757268
:10025000652E004D415833303130352077617320A1
:100260006E6F7420666F756E642E20506C656173BE
:100270006520636865636B20776972696E672F70AC
:100280006F7765722E0042504D004E6F2066696E8A
:10029000676572203F0020627574746F6E20746F02
:1002A00020737461727400205072657373207468D7
:1002B0006520757365720053656E64696E672042D0
:1002C0004C4520646174610042504D3A20004C61FD
:1002D000746368696E672042504D2076616C0077C8
:1002E000697468207072657373757265004170700F
:1002F0006C792066696E6765720074616B65206D4C
:100300006561737572656D656E74005075736820F4
:10031000533120746F0073656E736F72206E6F7748
:1003200000506C6163652066696E676572206F6E50
:1003300000617420616E792074696D650050757379
:100340006820533120746F207265736574005665A0
:100350007273696F6E20310057656C636F6D652035
:10036000746F205742484D210000000000240027F0
:10037000002A0000000000250028002B00000000DB
:1003800000230026002900040404040404040402D9
:100390000202020202030303030303010204081022
:1003A00020408001020408102001020408102000EF
:1003B0000000080002010000030407000000000024
:1003C00000000000AA19E71111241FBECFEFD8E0EA
:1003D000DEBFCDBF11E0A0E0B1E0ECE7F1E402C088
:1003E00005900D92AA3BB107D9F724E0AAEBB1E042
:1003F00001C01D92A93AB207E1F711E0C3EED1E0C6
:1004000004C02197FE010E94921EC23ED107C9F787
:100410000E94ED110C94B1200C9400000895CF922D
:10042000DF92EF92FF920F931F93CF93DF936C01B4
:100430007A018B01C0E0D0E0CE15DF0581F0D80154
:100440006D918D01D601ED91FC910190F081E02D2F
:10045000C6010995892B11F02196EECF7E01C701C7
:10046000DF91CF911F910F91FF90EF90DF90CF9090
:100470000895FC01538D448D252F30E0842F90E0AA
:10048000821B930B541710F0CF960895019708958F
:10049000FC01918D828D981761F0828DDF01A80F8C
:1004A000B11D5D968C91928D9F5F9F73928F90E0AE
:1004B00008958FEF9FEF0895FC01918D828D98171D
:1004C00031F0828DE80FF11D858D90E008958FEF5A
:1004D0009FEF0895FC01918D228D892F90E0805C23
:1004E0009F4F821B91098F739927089588EE92E0A0
:1004F0000E946A0221E0892B09F420E0822F0895EE
:10050000FC01848DDF01A80FB11DA35ABF4F2C91B0
:10051000848D90E001968F739927848FA689B7897F
:100520002C93A089B1898C91837080648C93938D76
:10053000848D981306C00288F389E02D80818F7D19
:1005400080830895EF92FF920F931F93CF93DF93D1
:10055000EC0181E0888F9B8D8C8D981305C0E88914
:10056000F989808185FD26C0F62E0B8D10E00F5F86
:100570001F4F0F731127E02E8C8DE8120CC00FB6A1
:1005800007FCFACFE889F989808185FFF5CFCE0194
:100590000E948002F1CF8B8DFE01E80FF11DE35A1E
:1005A000FF4FF0829FB7F8940B8FEA89FB89808117
:1005B00080620AC09FB7F894EE89FF896083E8895A
:1005C000F98980818370806480839FBF81E090E09F
:1005D000DF91CF911F910F91FF90EF900895CF93EE
:1005E000DF93EC01888D8823C9F0EA89FB8980813B
:1005F00085FD05C0A889B9898C9186FD0FC00FB60D
:1006000007FCF5CF808185FFF2CFA889B9898C914D
:1006100085FFEDCFCE010E948002E7CFDF91CF9121
:10062000089580E090E0892B29F00E9476028111E4
:100630000C9400000895FC01EB54FF4F17821682C2
:1006400011861086138612860895623090F4DC01BC
:100650001C962C91621759F0FC016487611107C048
:100660000190F081E02D0680F781E02D099581E071
:10067000089580E0089585ED8093BC008091BC00D2
:1006800084FDFCCF1092E30208954091FE01262FD5
:1006900030E0240F311D21323105DCF42091E302DA
:1006A0002430C9F4FC0180E090E0861758F43091C2
:1006B000FE012191DC01A252BE4FA30FB11D2C936C
:1006C0000196F3CF8091FE01680F6093FE0180E0F8
:1006D000089581E0089582E00895089508950895A9
:1006E000E0919C0280919B02E81730F4F0E0E35621
:1006F000FD4F808190E008958FEF9FEF08959091D6
:100700009C0280919B02981750F4E92FF0E0E35689
:10071000FD4F208130E09F5F90939C0202C02FEF3D
:100720003FEFC901089580919B0290E020919C02C7
:10073000821B91090895CF92DF92EF92FF920F935F
:100740001F93CF93DF937C01CB018A012091E702B5
:10075000222389F0EB016B01C40ED51ECC15DD05FB
:1007600069F06991D701ED91FC910190F081E02D44
:10077000C7010995F3CF642F0E944503C801DF919B
:10078000CF911F910F91FF90EF90DF90CF90089540
:10079000CF93DF931F92CDB7DEB769832091E70235
:1007A0002223D1F02091E402203240F021E030E019
:1007B000FC013383228380E090E015C08091E50244
:1007C000E82FF0E0E254FE4F998190838F5F809391
:1007D000E5028093E40205C061E0CE0101960E942B
:1007E000450381E090E00F90DF91CF910895089547
:1007F00080E090E008950E947F20CF93DF93EC018A
:1008000060E08E810E94EC1061E08E810E94EC100D
:1008100060E08E810E94EC108BE891E00197F1F787
:10082000DF91CF9108950F931F930E9491118B0137
:100830009C018091BA019091BB01A091BC01B09143
:10084000BD01B901A801481B590B6A0B7B0B4C3445
:1008500051056105710558F08091270260910001F2
:1008600090E0019670E00E946F1E80932702009333
:10087000BA011093BB012093BC013093BD011F91BD
:100880000F9108951F920F920FB60F9211242F937C
:100890003F934F935F936F937F938F939F93AF9308
:1008A000BF93EF93FF93E0910301F0910401099549
:1008B000FF91EF91BF91AF919F918F917F916F9138
:1008C0005F914F913F912F910F900FBE0F901F900E
:1008D00018951F920F920FB60F9211242F933F93EA
:1008E0004F935F936F937F938F939F93AF93BF9338
:1008F000EF93FF93E0910101F09102010995FF91BF
:10090000EF91BF91AF919F918F917F916F915F9187
:100910004F913F912F910F900FBE0F901F90189500
:10092000DC01ED91FC910190F081E02D0994EF92B2
:10093000FF920F931F93CF93DF938C017B01C0E055
:10094000D0E0F701EC0FFD1F6491662361F0D80140
:10095000ED91FC910190F081E02DC8010995892B62
:1009600011F02196EECFCE01DF91CF911F910F9123
:10097000FF90EF9008956115710579F0FB010190EA
:100980000020E9F73197AF01461B570BDC01ED91D1
:10099000FC910280F381E02D099480E090E00895BD
:1009A0008F929F92AF92BF92EF92FF920F931F93FD
:1009B000CF93DF93CDB7DEB7A1970FB6F894DEBF24
:1009C0000FBECDBF7C01FA01CB0119A2223008F481
:1009D0002AE08E010F5D1F4F822E912CA12CB12C8D
:1009E000BF01A50194010E94C91CF901CA0101506F
:1009F00011096A3014F4605D01C0695CD8016C9320
:100A0000232B242B252B61F7B801C7010E94BB04BF
:100A1000A1960FB6F894DEBF0FBECDBFDF91CF9188
:100A20001F910F91FF90EF90BF90AF909F908F908C
:100A3000089566EB71E00C94BB040F931F93CF9362
:100A4000DF93EC010E9497048C01CE010E941905EE
:100A5000800F911FDF91CF911F910F9108951F92E9
:100A60000F920FB60F9211242F933F934F935F93E2
:100A70006F937F938F939F93AF93BF93EF93FF9366
:100A800088EE92E00E948002FF91EF91BF91AF91BA
:100A90009F918F917F916F915F914F913F912F9196
:100AA0000F900FBE0F901F9018951F920F920FB6C8
:100AB0000F9211242F938F939F93EF93FF93E091C5
:100AC000F802F091F9028081E091FE02F091FF02BC
:100AD00082FD12C09081809101038F5F8F732091FE
:100AE0000203821751F0E0910103F0E0E851FD4F5D
:100AF000958F8093010301C08081FF91EF919F91B9
:100B00008F912F910F900FBE0F901F901895CF933C
:100B1000DF93EC012E813F818A819B812817390761
:100B200019F48D81882359F14C8150E0288539854D
:100B3000429FC001439F900D529F900D1124288128
:100B40003981820F931F0E949120888599852A817F
:100B50003B810196B9010E945B1E998788878E812F
:100B60009F812817390729F4888599859B878A876B
:100B700005C08E819F8101969F838E8381E0DF91E6
:100B8000CF9108958F929F92AF92BF92CF92DF92B2
:100B9000EF92FF920F931F93CF93DF938C010F5926
:100BA0001F4FF80120812F3F39F46EBD00000DB4B6
:100BB00007FEFDCF8EB537C0D62F27E0E22EF12CF1
:100BC000C0E0CC24C394D12C5C01F2E6AF0EB11C82
:100BD0004C0123E6820E911CCC0F60E0F80180816D
:100BE0000E94EC10B6010E2C01C0660F0A94EAF7C1
:100BF0006D23F50180810E94EC1061E0F801808195
:100C00000E94EC10F40180810E94C310892B09F02E
:100C1000C160F1E0EF1AF108F8F660E0F8018081B8
:100C20000E94EC108C2FDF91CF911F910F91FF90BC
:100C3000EF90DF90CF90BF90AF909F908F900895EE
:100C4000EF92FF920F931F93CF93DF937C01EB0101
:100C50008B01040F151FC017D10731F06881C70140
:100C60000E94C2058993F7CFDF91CF911F910F9119
:100C7000FF90EF90089508958CBD9DBD0895CF928B
:100C8000DF92EF92FF92CF93DF93EC010E949111DC
:100C9000C880D980EA80FB80DC01CB018C199D09DA
:100CA000AE09BF0921E0CC80DD80EE80FF808C158D
:100CB0009D05AE05BF0508F420E0822FDF91CF919E
:100CC000FF90EF90DF90CF9008958F929F92AF9218
:100CD000BF92CF92DF92EF92FF920F931F93CF9329
:100CE000DF93CDB7DEB76C970FB6F894DEBF0FBEBB
:100CF000CDBF7C01B62EA72E6A01122F01110DC0A7
:100D0000DC011C968C911C97882339F0ED91FC91A5
:100D10000680F781E02DC701099580E18983AB82C8
:100D2000BA828C818078912F9F77892B8C831031A8
:100D300011F4017001C000E08C8100FB87F98C8305
:100D4000C114D10449F0112339F0412F50E0B6010C
:100D5000CE0105960E949120F701EF59FF4F808147
:100D60008F3F31F480918503909186030E943C0669
:100D70006701BEE5CB0ED11C60E0F60180810E94C8
:100D8000EC10D70114968D909D90AD90BC90179764
:100D90000E9491116D8B7E8B8F8B988F898E9A8E8E
:100DA000AB8EBC8E83ECA82EB12C6981C7010E944A
:100DB000C2058E3FA1F4CE0145960E943F068111E7
:100DC0000EC061E0D6018C910E94EC10C501019724
:100DD000F1F760E0F60180810E94EC10E6CFCE01D1
:100DE00045960E943F0601E0082751F0412F50E050
:100DF0004D5F5F4FBE016E5F7F4FC7010E942006AF
:100E000061E0F60180810E94EC10802F6C960FB695
:100E1000F894DEBF0FBECDBFDF91CF911F910F9130
:100E2000FF90EF90DF90CF90BF90AF909F908F900A
:100E30000895CF92DF92EF92FF920F93CF93DF93BB
:100E40001F92CDB7DEB76C017C0185EBE80EF11C7B
:100E5000F70186819781892BB1F0448150E022858A
:100E60003385429FC001439F900D529F900D1124E6
:100E700060817181680F791FCE0101960E949120D7
:100E8000898190E020C0F601848581110AC000E0CC
:100E900020E040E050E062E07AE0C6010E94650692
:100EA00008C0F601E15AFF4F80810E94C310892BD0
:100EB00019F0C6010E943C0FF70186819781892BAA
:100EC00061F68FEF9FEF0F90DF91CF910F91FF9021
:100ED000EF90DF90CF900895CF92DF92EF92FF9244
:100EE0000F93CF93DF931F92CDB7DEB76C017C01D8
:100EF00085EBE80EF11CF70186819781892B49F17A
:100F000086819781892B11F1448150E022853385B8
:100F1000429FC001439F900D529F900D112460810C
:100F20007181680F791FCE0101960E949120F7010F
:100F3000828593850196628173810E945B1E9387EF
:100F4000828786819781019797838683898190E044
:100F500021C0F601848581110AC000E020E040E054
:100F600050E062E07AE0C6010E94650608C0F60122
:100F7000E15AFF4F80810E94C310892B19F0C601EE
:100F80000E943C0FF70186819781892B09F0BCCF25
:100F90008FEF9FEF0F90DF91CF910F91FF90EF9028
:100FA000DF90CF900895EF92FF920F93CF93DF934E
:100FB0007C0125EBE20EF11CF70126813781232B02
:100FC00081F4FC012485211114C0EC0100E040E013
:100FD00050E062E07AE00E946506CE010E943C0F7C
:100FE000F70186819781DF91CF910F91FF90EF906C
:100FF0000895FC01E15AFF4F8081DF91CF910F915D
:10100000FF90EF900C94C3108F929F92AF92BF927B
:10101000CF92DF92EF92FF920F93CF93DF935C0119
:101020007B01EA01DC011C968C91882329F0C60F14
:10103000D71FC12CD12C3FC0F501EF53FF4F80814A
:101040008823A9F04330510590F043E050E062E777
:1010500071E0C7010E948420892B49F4C330D10577
:1010600041F0F70183818D3021F08A3011F06E015B
:101070001AC0C5010E94010F1CC04601F1E1CF1644
:10108000D10418F080E1882E912CC818D90801E00D
:1010900009F400E0282DA70161E07AE0C5010E9473
:1010A0006506E80CF91CC114D10439F7C5010E948A
:1010B0003C0FCE0112C0EC16FD0671F0D7016D9108
:1010C0007D01D501ED91FC910190F081E02DC501EC
:1010D0000995C80ED91EEFCFC601DF91CF910F91B0
:1010E000FF90EF90DF90CF90BF90AF909F908F9048
:1010F0000895AF92BF92CF92DF92EF92FF920F933B
:101100001F93CF93DF931F92CDB7DEB77C01698326
:10111000FC01848581110EC000E021E0AE014F5F2B
:101120005F4F61E07AE0C7010E946506C7010E9437
:101130003C0F58C0898197012C583F4F6901F90134
:101140008D3011F08A3031F51081112309F441C03E
:10115000F701EF53FF4F808197012C593F4F590101
:10116000882369F043E050E062E771E0C9010E9422
:101170008420892B21F4C7010E94010F08C000E0E0
:10118000212FA50160E07AE0C7010E946506F60103
:1011900010821FC09081903191F401E020E157014D
:1011A000F4E6AF0EB11CA50160E07AE0C7010E9431
:1011B00065068981F501808381E0F60109C021E09F
:1011C000290FF6012083F701E90FF11DEC59FF4FBC
:1011D0008083F7018585882329F0698188EE92E074
:1011E0000E94900481E090E00F90DF91CF911F91D9
:1011F0000F91FF90EF90DF90CF90BF90AF90089548
:10120000EF92FF920F931F93CF93DF93CDB7DEB78B
:10121000C154D1090FB6F894DEBF0FBECDBF8C010B
:10122000FC018585882331F068E670E088EE92E065
:101230000E9497047801FEE0EF0EF11CF801448152
:101240005581BE016F5F7F4FC8010E94860D892BBB
:10125000C9F066E771E0CE0101960E94A120892BBA
:1012600079F069E771E0CE0101960E94A120892BF7
:1012700049F0BE016F5F7F4FC7010E94AA20DECFF9
:1012800081E001C080E0CF5BDF4F0FB6F894DEBF96
:101290000FBECDBFDF91CF911F910F91FF90EF90C7
:1012A0000895FC0144815581BC01625F7F4F0C941D
:1012B000860D2F923F924F925F926F927F928F9204
:1012C0009F92AF92BF92CF92DF92EF92FF920F93D5
:1012D0001F93CF93DF9300D000D0CDB7DEB79C83B0
:1012E0008B837A836983542E39017801C12CD12CE8
:1012F000412C242E312C21E0221A3108451409F406
:10130000CEC0411005C06DE38B819C810E9490048A
:10131000D3010D911D913D01C80188278115B4E0CD
:101320009B0709F478C0A8F48115F2E09F0789F1C2
:10133000811523E0920709F474C08115914009F0EA
:101340009EC0F701608171818B819C810E94BB04EA
:1013500096C08115B6E09B0709F47FC040F4811563
:10136000954009F08CC0D7016D917C9184C08115A6
:1013700027E0920709F47AC08115984009F07FC0F0
:10138000F701408151816281738155276627772754
:101390006BC0D7018D909C9011270150110908F462
:1013A0006EC0EFEF8E1A9E0AF4013197B080AB81C8
:1013B000BC81ED91FC910190F081E02D6B2D629547
:1013C0006F706A3010F087E301C080E3680F8B8193
:1013D0009C810995AB81BC81ED91FC910190F081DC
:1013E000E02D6B2D6F706A3010F087E301C080E351
:1013F000680F8B819C8109950115110571F2AB81F4
:10140000BC81ED91FC9111970190F081E02D6DE28E
:10141000CD010995C2CFF70140815181628173816D
:1014200023C0D7018D909D90AD90BC90B7FE0DC0AC
:101430006DE28B819C810E94900444275527BA015C
:10144000481959096A097B090FC02AE0B501A401AE
:101450008B819C810E94D00412C0F7014081518190
:1014600062817381662777272AE0F2CFD7016C91DA
:10147000062E000C770B8B819C810E94E60D2C14AC
:101480003D0429F06CE28B819C810E94900443947E
:10149000BFEFCB1ADB0AE4E0EE0EF11C2FCF8B81FD
:1014A0009C810E94190589819A81892B29F1AB8140
:1014B000BC811D968C91882331F06DE670E088EE3A
:1014C00092E00E9497048B819C810E945109892B94
:1014D00051F040E050E060E070E08B819C810E961E
:1014E0000E94E01A03C060E070E0CB01E981FA815C
:1014F00060837183828393838B819C810F900F9093
:101500000F900F90DF91CF911F910F91FF90EF906F
:10151000DF90CF90BF90AF909F908F907F906F9013
:101520005F904F903F902F900C9400091F920F9264
:101530000FB60F9211240F900FBE0F901F901895A9
:101540001F920F920FB60F9211242F933F934F9338
:101550005F936F937F938F939F93AF93BF93EF931B
:10156000FF938091B900887F803609F49CC068F5AC
:10157000883209F45BC090F4803109F454C038F427
:10158000882309F4F6C0883009F44DC0F6C08831CC
:1015900009F44CC0803209F45DC0EFC0803409F416
:1015A00068C048F4803309F455C0883309F0E5C0B9
:1015B0008093E102D8C0803509F44FC0883509F422
:1015C0005DC0883409F0D9C0D6C0883909F4C7C0D5
:1015D000A8F4883709F467C038F4883609F463C082
:1015E000803709F460C0C9C0883809F4B8C08039B0
:1015F00009F45FC0803809F0C0C05BC0803B09F4CB
:1016000086C038F4803A09F466C0883A09F47FC08D
:10161000B4C0803C09F4A7C0883C09F4A4C0883B4E
:1016200009F48AC0AAC08091DE0210C09091E00245
:101630008091DF02981770F5E091E00281E08E0F53
:101640008093E002F0E0E354FD4F80818093BB0083
:1016500085EC86C08093E1028EC0E091E00281E0DB
:101660008E0F8093E0028091BB00F0E0E354FD4FC9
:1016700080839091E0028091DF026EC0E091E002F1
:1016800081E08E0F8093E0028091BB00F0E0E35494
:10169000FD4F80838091E20281116DC081E08093D3
:1016A000DD0284EA61C083E08093E30210922002AD
:1016B000CFCF80912002803208F051C0E09120020B
:1016C00081E08E0F809320028091BB00F0E0E0501B
:1016D000FE4F8083BDCF85EC8093BC001092E30267
:1016E00080912002803230F4E0912002F0E0E0505E
:1016F000FE4F10826091200270E0E0912302F09191
:10170000240280E092E009951092200236C084E025
:101710008093E3021092FF011092FE01E0912502F6
:10172000F091260209958091FE01811105C081E0AA
:101730008093FE011092DE01E091FF0181E08E0FA7
:101740008093FF01F0E0E252FE4F80818093BB0066
:101750009091FF018091FE01981708F479CF85E8F8
:101760008093BC000AC085EC8093BC001092E30219
:1017700004C01092E1020E943B03FF91EF91BF91E0
:10178000AF919F918F917F916F915F914F913F9119
:101790002F910F900FBE0F901F9018953091E4027B
:1017A000313208F04AC08091E3028111FCCF909160
:1017B000E60222E02093E3026093E2022FEF2093FF
:1017C000E1021092E0023093DF02EEEBF1E0ADEBCC
:1017D000B2E020E0321721F041914D932F5FFACF14
:1017E0001092DE022091DE02990F922B9093DE027E
:1017F0009091DD02913061F41092DD029091DE0251
:101800009093BB009091BC0093FDF8CF95EC01C084
:1018100095EE9093BC009091E3029230E1F39091A9
:10182000E1029F3F79F08091E102803241F08091A6
:10183000E102803331F084E005C081E003C082E042
:1018400001C083E01092E5021092E4021092E702D8
:101850000895CF92DF92EF92FF920F931F93CF9351
:10186000DF936C017C0187E0E80EF11CC0E0D0E062
:10187000062F10E0B8010C2E02C0759567950A94EA
:10188000E2F76170F70181917F010E94EC102196CF
:10189000C430D10579F7C601DF91CF911F910F9127
:1018A000FF90EF90DF90CF900C94FD03CF92DF92EA
:1018B000EF92FF920F931F93CF93DF93EC01F62EDD
:1018C000642F8C810E94EC108D818F3F19F060E0B5
:1018D0000E94EC108F850F2D10E084FF25C06E0153
:1018E00087E0C80ED11CE12CF12CB8010E2C02C0EF
:1018F000759567950A94E2F76170F60181916F0121
:101900000E94EC10FFEFEF1AFF0A88E0E816F104DE
:1019100061F7CE01DF91CF911F910F91FF90EF9072
:10192000DF90CF900C94FD03B80184E07595679526
:101930008A95E1F7CE010E94290C6F2DCE01DF912F
:10194000CF911F910F91FF90EF90DF90CF900C946B
:10195000290C41E00E94560C81E090E0089540E09F
:10196000682F82E894E00C94560C81E00E94AF0C42
:101970008BE39FE10197F1F70895CF93DF938230D6
:1019800028F090919104986090939104809395042D
:101990001092960480E48093970480E180939804E9
:1019A00080E58093990461E0809186040E941B1178
:1019B000809187048F3F19F061E00E941B1161E064
:1019C000809188040E941B11C2E8D4E09E01225835
:1019D00034408091910484FD03C084E090E002C013
:1019E00088E090E02196281739072CF461E08E8179
:1019F0000E941B11EBCF8BE39DE00197F1F760E0B4
:101A0000809186040E94EC1060E0809188040E941E
:101A1000EC10809187048F3F19F060E00E94EC1079
:101A20008091910484FD20C063E082E894E00E94EC
:101A3000290CCBE4D6E4CE010197F1F763E082E80C
:101A400094E00E94290C2197F1F763E082E894E08A
:101A50000E94290C83E592E00197F1F762E082E8A9
:101A600094E00E94290C15C080620E94AF0C8BE4A8
:101A700096E40197F1F78091910480620E94AF0C87
:101A800083E592E00197F1F78091910480620E94D2
:101A9000AF0C8091910480620E94AF0C84E080932F
:101AA00092048CE00E94AF0C0E94B50C82E08093FF
:101AB000930486E0DF91CF910C94AF0CE8EEF2E056
:101AC000A089B18982E08C93A485B5851C92A685F6
:101AD000B78580E18C93108EA489B58986E08C93BC
:101AE000A289B3898C9180618C93A289B3898C91EE
:101AF00088608C93A289B3898C9180688C930288CA
:101B0000F389E02D80818F7D80830895CF92DF92CD
:101B1000EF92FF920F931F93CF93DF937C016B01A2
:101B20008A01C0E0D0E00115110561F1D701ED9106
:101B3000FC910084F185E02DC7010995892BC1F046
:101B4000D701ED91FC910284F385E02DC701099541
:101B50008D3061F38A3019F4209741F32AC0F601E1
:101B6000EC0FFD1F80832196C034D105F8F221C00F
:101B700001501109C1F261E070E080E090E00E9444
:101B80005711D1CFF601EC0FFD1F1082F7018585AB
:101B9000882391F0209781F0B60188EE92E00E94B0
:101BA000BB04C034D10540F488EE92E00E941905D0
:101BB00003C000E010E0B7CFCE01DF91CF911F91BD
:101BC0000F91FF90EF90DF90CF900895CF92DF922A
:101BD000EF92FF920F931F93CF93DF936B01770FD9
:101BE000EE08FF08F7FE1BC0EC016DE20E949004B6
:101BF0008C0144275527BA014C195D096E097F09EC
:101C00002AE0CE010E94D004800F911FDF91CF9176
:101C10001F910F91FF90EF90DF90CF9008952AE0F1
:101C2000B701A601DF91CF911F910F91FF90EF9027
:101C3000DF90CF900C94D0041F93CF93DF93142F99
:101C400091E09093E7028093E6021092E5021092F1
:101C5000E402CBE5D4E088819981DC01ED91FC912F
:101C60000190F081E02D099588819981DC01ED9149
:101C7000FC910190F081E02D612F099561E0888150
:101C80009981DF91CF911F910C94CE0B9091E3023B
:101C90009111FCCF91E09093E3029093E2022FEF39
:101CA0002093E1021092E002260F2093DF0290932E
:101CB000DE029091DE02880F892B8093DE028091F4
:101CC000DD02813061F41092DD028091DE028093AA
:101CD000BB008091BC0083FDF8CF85EC01C085EE90
:101CE0008093BC008091E3028130E1F38091E002B7
:101CF000861710F46091E002ADEBB2E0EDE9F2E09E
:101D000080E0861721F09D9191938F5FFACF08951F
:101D1000CF93C82F81E08093E702C093E602109230
:101D2000E5021092E40280915B0490915C04DC0176
:101D3000ED91FC910190F081E02D099560E080919A
:101D40005B0490915C040E94CE0B61E08C2F0E949A
:101D5000460E10929C0280939B0280915B049091AE
:101D60005C04DC01ED91FC910084F185E02D099586
:101D7000892B61F080915B0490915C04DC01ED9112
:101D8000FC910284F385E02D099501C080E0CF919C
:101D90000895FF920F931F93CF93DF93F82ED62FC2
:101DA000C42F0BE514E0682FF80182810E94880E91
:101DB0008D23482F4C2B6F2DF8018281DF91CF911D
:101DC0001F910F91FF900C941C0E482F6CEF8AE02E
:101DD0000C94C90E482F63EE8AE00C94C90E64304F
:101DE00008F063E090919504691710F06FEF690FA8
:101DF000E62FF0E0EE57FB4F9489890F80680C9432
:101E0000AF0CCF92DF92EF92FF920F931F93CF937D
:101E1000DF931F92CDB7DEB7FC01348521E0231B91
:101E2000248721E3231B29838C010B541F4FBE0100
:101E30006F5F7F4FC8010E94870586E0E82EF12C76
:101E400092EBC92E91E0D92EB601C8010E948705F8
:101E5000882341F0F8018481C80ED11CF1E0EF1A0B
:101E6000F10891F70F90DF91CF911F910F91FF90A3
:101E7000EF90DF90CF9008953F924F925F926F92D4
:101E80007F928F929F92AF92BF92CF92DF92EF920A
:101E9000FF920F931F93CF93DF93CDB7DEB7A29737
:101EA0000FB6F894DEBF0FBECDBF8C016C0125EBE1
:101EB000C20ED11CCE0101969E8F8D8FF801E15A82
:101EC000FF4FFAA3E9A32801F1E64F0E511C780158
:101ED0002EE5E20EF11C93EC692E712CF6012681A1
:101EE000378182819381821B930B409708F477C0DE
:101EF00084E1ED8DFE8D11928A95E9F7F8018480D9
:101F00009580A680B780880C991CAA1CBB1C0E94D7
:101F100091116D8B7E8B8F8B988F898E9A8EAB8E65
:101F2000BC8EE9A1FAA180810E94C310892B41F4E3
:101F3000CE0145960E943F06882399F3312CBCC000
:101F4000F20180818F3F31F4809185039091860367
:101F50000E943C0660E0F70180810E94EC10F801CD
:101F600084809580A680B7800E9491116D8B7E8BB6
:101F70008F8B988F898E9A8EAB8EBC8ECE014596B4
:101F80000E943F0681111AC06FEFC8010E94C2056E
:101F900089838E3F11F08F3F69F461E0F701808102
:101FA0000E94EC10C3010197F1F760E0F701808116
:101FB0000E94EC1089818E5F823000F3898180322B
:101FC00089F0803879F0CE0145960E943F06811154
:101FD00009C06FEFC8010E94C2058983EFCF332487
:101FE00033946AC0CE0145960E943F06811115C008
:101FF00043E050E06FEF70E0CE0102960E949A201D
:1020000043E050E0BE016E5F7F4FC8010E94200692
:102010008A819B812981203811F4B12C1BC09A50F0
:102020000397D8F78C818F77A82EB12CF1E1AF16EA
:10203000B1049CF7A5016FEF70E0CE0105960E94F8
:102040009A20A501BE016B5F7F4FC8010E94200648
:10205000BB24B39461E0F70180810E94EC10F2018F
:1020600080818F3F11F40E943B063B2CBB2021F165
:102070008C818F7721F48C8187FD30CF1DC0282F74
:1020800030E038A32F8F4E0135E0830E911CA12C38
:10209000B12CB401C6010E948705882361F38FEF3C
:1020A000A81AB80AF6018481880E911C2F8D38A1D8
:1020B000A216B30600F7EDCF832DA2960FB6F894C3
:1020C000DEBF0FBECDBFDF91CF911F910F91FF906B
:1020D000EF90DF90CF90BF90AF909F908F907F90C8
:1020E0006F905F904F903F900895833081F028F477
:1020F000813099F08230A1F008958730A9F08830BE
:10210000B9F08430D1F4809180008F7D03C080913C
:1021100080008F7780938000089584B58F7702C008
:1021200084B58F7D84BD08958091B0008F7703C002
:102130008091B0008F7D8093B00008953FB7F894F0
:1021400080919F049091A004A091A104B091A20459
:1021500026B5A89B05C02F3F19F00196A11DB11D02
:102160003FBFBA2FA92F982F8827820F911DA11D3D
:10217000B11DBC01CD0142E0660F771F881F991F7A
:102180004A95D1F70895CF93DF93282F30E0F901D6
:10219000E155FC4F8491F901E556FC4FD491F901CA
:1021A000E957FC4FC491CC2391F081110E94751026
:1021B000EC2FF0E0EE0FFF1FE358FC4FA591B49118
:1021C000EC91ED2381E090E021F480E002C080E01A
:1021D00090E0DF91CF9108951F93CF93DF93282F45
:1021E00030E0F901E155FC4F8491F901E556FC4FCF
:1021F000D491F901E957FC4FC491CC23C1F0162FBB
:1022000081110E947510EC2FF0E0EE0FFF1FED58CA
:10221000FC4FA591B4919FB7F894111104C08C9113
:10222000D095D82302C0EC91DE2BDC939FBFDF91C9
:10223000CF911F910895CF93DF9390E0FC01E55675
:10224000FC4F2491FC01E957FC4F8491882361F1F4
:1022500090E0880F991FFC01E759FC4FC591D4917C
:10226000FC01ED58FC4FA591B491611109C09FB7D5
:10227000F8948881209582238883EC912E230BC0CB
:10228000623061F49FB7F8948881322F30958323B0
:102290008883EC912E2B2C939FBF06C08FB7F894A8
:1022A000E8812E2B28838FBFDF91CF9108958F92E5
:1022B0009F92AF92BF92CF92DF92EF92FF926B010B
:1022C0007C010E949E104B015C01C114D104E10409
:1022D000F104F1F00E949E10DC01CB0188199909EC
:1022E000AA09BB09883E9340A105B10570F321E01E
:1022F000C21AD108E108F10888EE880E83E0981E22
:10230000A11CB11CC114D104E104F10419F7DDCF03
:10231000FF90EF90DF90CF90BF90AF909F908F9005
:1023200008952FB7F89460919B0470919C0480915C
:102330009D0490919E042FBF08951F920F920FB697
:102340000F9211242F933F938F939F93AF93BF933B
:1023500080919B0490919C04A0919D04B0919E0457
:1023600030919A0423E0230F2D3720F40196A11D0C
:10237000B11D05C026E8230F0296A11DB11D2093B3
:102380009A0480939B0490939C04A0939D04B09323
:102390009E0480919F049091A004A091A104B0910B
:1023A000A2040196A11DB11D80939F049093A004E7
:1023B000A093A104B093A204BF91AF919F918F917C
:1023C0003F912F910F900FBE0F901F901895809105
:1023D0005504909156040C94301FCF93DF93CDB7E2
:1023E000DEB72D970FB6F894DEBF0FBECDBF789441
:1023F00084B5826084BD84B5816084BD85B582600A
:1024000085BD85B5816085BD80916E0081608093BA
:102410006E00109281008091810082608093810023
:102420008091810081608093810080918000816033
:10243000809380008091B10084608093B10080918E
:10244000B00081608093B00080917A0084608093B6
:102450007A0080917A00826080937A0080917A007D
:10246000816080937A0080917A00806880937A00FE
:102470001092C10061E083E00E941B1161E084E0E2
:102480000E941B1161E08EE00E941B1161E08FE051
:102490000E941B1161E080E10E941B1182E00E94FA
:1024A000BD0C62E082E00E941B1183E194E09093F6
:1024B000020180930101809169008C7F826080938A
:1024C0006900E89A0E945E0D87E893E090935C04AF
:1024D00080935B0410929C0210929B021092E50282
:1024E0001092E4021092E30281E08093E2021092E3
:1024F000DD0261E082E10E94EC1061E083E10E9474
:10250000EC108091B9008E7F8093B9008091B90062
:102510008D7F8093B90088E48093B80085E4809330
:10252000BC008DE693E090932602809325028EE610
:1025300093E090932402809323028CE08093B80070
:1025400087E580935D046FEF0E94880E853109F066
:10255000FAC66EEF80915D040E94880E80935F043E
:102560006CE172E088EE92E00E941D0540E46FEBA2
:1025700089E00E94C90E0E9491116B017C010E94AA
:102580009111DC01CB018C199D09AE09BF0984367C
:102590009105A105B10570F469E080915D040E9488
:1025A000880E86FF07C061E070E080E090E00E9446
:1025B0005711E5CF40E46FE188E00E94C90E40E189
:1025C0006FEE88E00E94C90E47E068EF89E00E9444
:1025D000C90E83E080935E0440E26FE98AE00E94C6
:1025E000C90E8CE00E94EA0E83E00E94E50E4FE1E6
:1025F0006CE080915D040E941C0E4FE16DE08091C3
:102600005D040E941C0E4FE160E180915D040E9418
:102610001C0E41E068EF81E10E94C90E40E26FE8C4
:1026200081E10E94C90E43E068EF82E10E94C90E79
:1026300040E064E080915D040E941C0E40E065E093
:1026400080915D040E941C0E40E066E080915D0474
:102650000E941C0E4AE06CE080915D040E941C0EFA
:1026600064EF71E080E090E00E9457110E945E0DDF
:102670006BEE71E088EE92E00E941D056AEB71E05E
:1026800088EE92E00E941D0563E971E088EE92E019
:102690000E94970481E08093A00360E08091F203A0
:1026A0000E941B1161E08091F1030E941B1161E007
:1026B0008091F1030E94EC108091F4038F3F09F0A8
:1026C00034C01FB7F89480912802811127C0E1E936
:1026D000F3E08491E5EAF3E09491E82FF0E0EE0F67
:1026E000FF1FE759FC4FA591B491EC91E92321F428
:1026F00061E08AE00E94EC1061E08AE00E941B1118
:102700008CB580618CBD8CB580648CBD61E08DE042
:102710000E941B1161E08BE00E941B118091280236
:102720008F5F809328021FBF12C061E00E941B11BF
:1027300060E08091F4030E94EC1060E08091F60369
:102740000E941B1161E08091F5030E941B1100E0C3
:1027500020E040E050E06FEE7EEB83E993E00E94E2
:102760006506182F8091F30387FD19C061E00E9470
:102770001B1161E08091F3030E94EC1060E08091F6
:10278000F3030E94EC106AE070E080E090E00E94A9
:10279000571161E08091F3030E94EC1011E00E9458
:1027A00091116093E3037093E4038093E5039093A6
:1027B000E60368EE73E080E090E00E94571111118B
:1027C00007C06BE471E088EE92E00E941D05FFCF28
:1027D00067E471E088EE92E00E941D056AE271E014
:1027E00088EE92E00E941D0562E770E083E993E0C5
:1027F0000E941D0583E993E00E940009182F0E94A2
:1028000091116093E3037093E4038093E503909345
:10281000E60368EE73E080E090E00E9457111092AA
:102820004F0410924E0410925104109250041092D2
:10283000530410925204111107C063E171E088EE55
:1028400092E00E941D05FFCF80E093E09E838D8380
:1028500019821A821B821C82F0909F03F11005C01E
:1028600061E083E993E00E94250362E870E083E978
:1028700093E00E9497048E010F5F1F4F9E012B5F14
:102880003F4F41E060E070E083E993E00E94590926
:10289000F11005C060E083E993E00E9425036FE733
:1028A00071E088EE92E00E94BB0488EE92E00E9404
:1028B000190510919F031092A0036BE970E088EE58
:1028C00092E00E941D05111107C080919F03813085
:1028D00019F081E080939F0367E970E083E993E05A
:1028E0000E941D0583E993E00E945109892BD9F0CC
:1028F00066E771E081EA93E00E94A120892B99F0BC
:1029000069E771E081EA93E00E94A120892B59F0E8
:1029100061EA73E088EE92E00E94BB0488EE92E0E8
:102920000E941905DFCF111105C060E083E993E033
:102930000E94250366E870E088EE92E00E941D0583
:102940001092A00319821A821B821C82F0909F03AE
:10295000F11005C061E083E993E00E9425036CEA71
:1029600070E083E993E00E94970400E010E020E02B
:1029700030E040E0BE016F5F7F4F83E993E00E944B
:102980005909F11005C060E083E993E00E94250336
:1029900089819A81AB81BC81892B8A2B8B2B39F45D
:1029A00064EF71E080E090E00E945711CBCF10916E
:1029B0009F03111103C081E080939F036AEB70E0D5
:1029C00083E993E00E941D0583E993E00E94510989
:1029D0006AE971E081EA93E00E94A1207C0183E929
:1029E00093E00E940009111105C060E083E993E0C3
:1029F0000E942503F7FC25C067EF70E088EE92E0A7
:102A00000E941D05F0909F03F11003C081E08093A8
:102A10009F0360EA71E083E993E00E94BB0400E059
:102A200010E020E030E040E060E070E083E993E017
:102A30000E945909F11005C060E083E993E00E940B
:102A400025036FED70E088EE92E00E941D0560E0C6
:102A500083E993E00E94250360EC70E088EE92E049
:102A60000E941D0530E2232E312C809127028230F6
:102A700009F46DC0E0F5813009F03EC40E94B50C48
:102A800060E080E00E94EF0E68E573E082E894E089
:102A90000E94970461E080E00E94EF0E6EE473E014
:102AA00082E894E00E94970468E873E180E090E097
:102AB0000E9457110E94B50C60E080E00E94EF0E6A
:102AC0006DE373E082E894E00E94970461E080E0A7
:102AD0000E94EF0E61E373E082E894E00E949704A5
:102AE00068E873E180E090E00E945711FFC38330F3
:102AF00009F464C0843009F0FFC30E94B50C60E0A3
:102B000080E00E94EF0E67EB72E082E894E00E94A2
:102B1000970468EB7BE080E090E00E9457116091A1
:102B200097027091980283E993E00E94E60D83E991
:102B300093E00E9419051092990210929802109247
:102B4000970280912702815080932702D5C30E946B
:102B5000B50C60E080E00E94EF0E61E273E082E875
:102B600094E00E94970461E080E00E94EF0E66E12D
:102B700073E082E894E00E94970468EB7BE080E0D9
:102B800090E00E9457110E94B50C60E080E00E9426
:102B9000EF0E6BE073E082E894E00E94970461E03E
:102BA00080E00E94EF0E6AEF72E082E894E00E94FB
:102BB000970468E873E180E090E0C0C361E083E0DF
:102BC0000E94EC1060E084E00E94EC1080919A0278
:102BD000811122C00E94B50C60E080E00E94EF0EDF
:102BE0006DEE72E082E894E00E94970461E080E07C
:102BF0000E94EF0E6FED72E082E894E00E9497046D
:102C000068E873E180E090E00E9457110E94B50CE3
:102C100081E080939A02DACF0E9491114B015C010E
:102C2000772473940E949111DC01CB0188199909D2
:102C3000AA09BB098B3F9105A105B10508F0FCC0AD
:102C400066E080915D040E94880E182F64E08091F8
:102C50005D040E94880E811307C061E070E080E08F
:102C600090E00E945711DECF90E09C01211B3109BA
:102C7000890137FF02C0005E1F4F20915E04209F34
:102C8000C001219F900D11247C01EE0CFF1CE80E69
:102C9000F91E7092E70237E53093E6021092E502E2
:102CA0001092E40280915B0490915C04DC01ED9150
:102CB000FC910190F081E02D67E0099561E0809141
:102CC0005B0490915C040E94CE0B1E141F040CF058
:102CD000A2C0B1E2EB16F1046CF060915E04E3E097
:102CE0006E9FB0011124C1010E946F1E6101C81ABC
:102CF000D90A01C06701EC18FD086C2D613208F09B
:102D000060E287E50E94460E10929C0280939B022F
:102D10001C141D04D4F6809180048F5F837080930F
:102D200080041A8680915B0490915C04DC01ED9133
:102D3000FC910284F385E02D0995898780915B04DD
:102D400090915C04DC01ED91FC910284F385E02D0F
:102D50000995888780915B0490915C04DC01ED917A
:102D6000FC910284F385E02D09958F83E091800426
:102D7000B4E0EB9FF0011124E55AFB4F8F81988559
:102D8000A985BA85A370BB2785839683A783B0875F
:102D900080915E048230B0F180915B0490915C047C
:102DA000DC01ED91FC910284F385E02D0995898782
:102DB00080915B0490915C04DC01ED91FC910284B4
:102DC000F385E02D0995888780915B0490915C04E0
:102DD000DC01ED91FC910284F385E02D09958F8350
:102DE000E0918004B4E0EB9FF0011124E559FB4F22
:102DF0008F819885A985BA85A370BB278583968323
:102E0000A783B08720915E043DEF3203C0011124F7
:102E1000C80ED91E7DCF0130110509F01ECFE091FB
:102E2000800424E0E29FF0011124E559FB4F458026
:102E300056806780708403C0412C512C320140922F
:102E40009302509294026092950270929602809042
:102E50007802909079029092770280927602409167
:102E60007202509173026091740270917502D301E5
:102E7000C201AA27BB273FE0880F991FAA1FBB1FCB
:102E80003A95D1F7841B950BA60BB70BE4E0B595EB
:102E9000A79597958795EA95D1F7840F951FA61F5B
:102EA000B71F8093720290937302A0937402B09341
:102EB0007502409169024B87A42EB12CF501EE0FEB
:102EC000FF1FE75DFD4F0FE0B595A7959795879597
:102ED0000A95D1F7B201681B790B71836083F50104
:102EE0003B97EF71FF27EE0FFF1FE75DFD4FC0809F
:102EF000D1800D2C000CEE08FF089CE0CC0CDD1CF2
:102F0000EE1CFF1C9A95D1F706E111E040E050E07D
:102F1000F5017697FD87EC87AC85BD85A40FB51FBD
:102F2000AF71BB27AA0FBB1FA75DBD4FF501E41B07
:102F3000F50BEF71FF27EE0FFF1FE75DFD4F8D9142
:102F40009C91A081B181A80FB91FF8012191319105
:102F50008F010E94831EC60ED71EE81EF91E4F5F0A
:102F60005F4F4B305105C1F61B851F5F1F711093DA
:102F700069028FE0F594E794D794C7948A95D1F7C6
:102F80009601D0927902C092780297FE1EC0D7FCBB
:102F90001CC0809170029091710240916E0250911C
:102FA0006F0261E070E070936D0260936C021092AA
:102FB0006B0210926A021092710210927002841BCE
:102FC000950B4597833D934008F060E01814190471
:102FD0008CF41216130674F010926D0210926C02AB
:102FE00081E090E090936B0280936A0210926F02EE
:102FF00010926E0241E050E08216930614F040E019
:1030000050E080916C0290916D0284239523892B6E
:1030100021F0D0927102C092700281E090E02815F8
:10302000390514F080E090E020916A0230916B0243
:1030300082239323892B21F0D0926F02C0926E02DB
:10304000662309F4D8C00E94911100918F0210915B
:10305000900220919102309192026B017C01C01A82
:10306000D10AE20AF30AC0928B02D0928C02E0925B
:103070008D02F0928E020E94911160938F027093E4
:1030800090028093910290939202C701B6010E9430
:10309000091C20E030E04AE754E40E94A91D9B018E
:1030A000AC0160E070E080E792E40E94A91D6B0132
:1030B0007C0120E030E046E153E40E94021C87FFDF
:1030C0009AC020E030E040EF51E4C701B6010E9411
:1030D0004A1E18160CF08FC010918A02111108C0F8
:1030E000C0928602D0928702E0928802F092890212
:1030F0001F5F137010938A0280908602909087025F
:10310000A0908802B0908902A7019601C501B40180
:103110000E943C1D6B017C0120E030E040EA51E45C
:103120000E94021C181684F020E030E040EA51ECC6
:10313000C701B6010E944A1E87FD06C081E0809348
:1031400085021330D1F503C01092850236C0F0908D
:103150008402F3940F2D10E006581D4FC501B401F1
:103160000E941B1ED8016C938F2D6AE00E944F1E97
:1031700090938402EAE7F2E080E090E02191820FF0
:10318000911DA4E8B2E0AE17BF07C1F76AE070E096
:103190000E946F1E685F7F4F709398026093970242
:1031A00080910F0190E001968F70992780930F0115
:1031B000892B19F487E080930F01809197029091F9
:1031C000980220910D0130910E01FC01E21BF30BDE
:1031D0009F012B5F3F4F2B30310530F4009721F0DA
:1031E000209199022F5F01C021E0209399029093D2
:1031F0000E0180930D01F0E54F16F3EC5F066104BC
:103200007104B4F40E94B50C60E080E00E94EF0EFF
:103210006AE872E082E894E00E94970464EF71E04B
:1032200080E090E00E94571110929802109297024D
:103230000E94B50C60E080E00E94EF0E66E872E04C
:1032400082E894E00E94970461E081E00E94EF0E22
:10325000609197027091980282E894E00E94E60DD6
:1032600080E40E94AF0C05E011E0D8016D918D0162
:1032700082E894E00E94A90CEDE0F1E0E017F1078C
:10328000A1F760E080910F010E94EF0E60E082E8FC
:1032900094E00E94A90C80919902833308F450C0F5
:1032A0000E94B50C60E080E00E94EF0E6EEC72E0D0
:1032B00082E894E00E94970461E080E00E94EF0EB3
:1032C00068EC72E082E894E00E94970460919702B3
:1032D0007091980282E894E00E94E60D68EB7BE032
:1032E00080E090E00E94571110929A02809127028C
:1032F0008F5F8093270224C061E083E00E94EC107E
:1033000061E084E00E94EC100E94B50C60E080E077
:103310000E94EF0E67EA72E082E894E00E94970450
:1033200061E080E00E94EF0E66E972E082E894E0DE
:103330000E94970464EF71E080E090E00E945711D2
:103340000E94110392CB63E572E088EE92E00E9446
:103350001D05FFCF1092EB021092EA0288EE93E077
:10336000A0E0B0E08093EC029093ED02A093EE0217
:10337000B093EF0222E331E03093E9022093E802B8
:1033800025EC30E03093F5022093F40224EC30E099
:103390003093F7022093F60220EC30E03093F902EC
:1033A0002093F80221EC30E03093FB022093FA02E4
:1033B00022EC30E03093FD022093FC0226EC30E05A
:1033C0003093FF022093FE02109201031092020339
:1033D000109203031092040320E5209385031092BA
:1033E000860310928A031092890380938B03909333
:1033F0008C03A0938D03B0938E0384E491E09093AB
:1034000088038093870310928504109284048AE6CF
:1034100091E090938304809382048EE080938604ED
:103420008FEF8093870480E18093880489E0809304
:10343000890488E080938A0487E080938B0486E087
:1034400080938C0410928D0410928E0410928F043D
:10345000109290041092910481E00E94BD0C109291
:10346000560410925504109258041092570410926A
:103470005A041092590461E070E080E090E00E94EC
:10348000B91F009791F090935604809355041092C1
:103490005804109257042091590430915A04232B58
:1034A00009F081C0FC0110827EC08091550490918A
:1034B0005604009711F00E94301F1092560410928B
:1034C000550410925A041092590410925804109204
:1034D0005704109296031092950381E080939F0306
:1034E0001092A0034AEF50E060E070E04093970331
:1034F000509398036093990370939A031092E30397
:103500001092E4031092E5031092E6031092E80390
:103510001092E7031092EA031092E9031092EC0371
:103520001092EB031092EE031092ED031092F00351
:103530001092EF0326E531E0309394032093930338
:1035400028E034E0309349042093480420E430E03C
:1035500030934B0420934A0480934C0480934D0491
:10356000109253041092520410925104109250047D
:1035700010924F0410924E0493E09093E2039AE06D
:103580009093F10395E09093F2039FEF9093F303F0
:103590009093F4039093F5039093F603109207042D
:1035A00080935404089510925A041092590468EBC1
:1035B00071E080915504909156040E94AA2089CF11
:1035C000A0E0B0E0E6EEFAE10C94F71C5C016B01C0
:1035D0007A016115710519F0FB0191838083E11473
:1035E000F10429F0C7010297839708F0E5C0E501CF
:1035F0002196F5011081812F90E00E94F61B892B06
:1036000011F05E01F4CF1D3229F42196F5011181EC
:1036100001E007C01B3221F4E5012296F50111817A
:1036200000E0E114F10409F1F0E1EF16F10429F4EE
:103630003FC010E3E114F10421F128E0E216F104A7
:1036400001F154F4E2E0EE16F10421F5812C912C05
:10365000A12CB0E4BB2E3EC0FAE0EF16F10439F025
:1036600020E1E216F104B1F430C0103319F1FAE0B0
:10367000EF2EF12CACEC8A2E982CA82CACE0BA2EB4
:1036800029C078E0E72EF12C812C912CA12CE0E1CF
:10369000BE2E20C060E070E080E090E897010F2C23
:1036A000000C440B550B0E94C91C49015A0112C061
:1036B000103359F488818F7D883509F0BACF19818C
:1036C0002296026080E1E82EF12C812C912CA12C15
:1036D00068E0B62E40E060E070E0CB0127010F2CDF
:1036E000000C66087708FE0150ED352E310E29E0FA
:1036F000231570F42FEB210F2A3118F439EC332EF7
:1037000006C02FE9210F2A3118F529EA322E310E91
:10371000232D30E02E153F05DCF447FD16C086163C
:103720009706A806B90670F0A30192010E94B91C81
:10373000630D711D811D911D61307105810520E8AA
:10374000920710F04FEF01C041E021961081CBCFDE
:10375000202F2170C114D10471F0442329F0219746
:10376000F601D183C08307C001FF19C02297F6017B
:10377000D183C08314C047FF12C0222329F060E028
:1037800070E080E090E804C06FEF7FEF8FEF9FE77D
:1037900022E230E03093A4042093A30409C0222342
:1037A00081F090958095709561957F4F8F4F9F4FD9
:1037B000462F372F282F12C040E030E020E090E065
:1037C0000DC097FFF5CF82E290E09093A404809320
:1037D000A3046FEF7FEF8FEF9FE7EACF642F732F84
:1037E000822FCDB7DEB7E1E10C94131D91110C943B
:1037F000FF1B803219F089508550C8F7089599272A
:10380000882708950E94441C08F481E00895E894F4
:1038100009C097FB3EF490958095709561957F4F18
:103820008F4F9F4F9923A9F0F92F96E9BB279395C6
:10383000F695879577956795B795F111F8CFFAF4D6
:10384000BB0F11F460FF1BC06F5F7F4F8F4F9F4F07
:1038500016C0882311F096E911C0772321F09EE865
:10386000872F762F05C0662371F096E8862F70E0CB
:1038700060E02AF09A95660F771F881FDAF7880FA5
:103880009695879597F90895990F0008550FAA0BFB
:10389000E0E8FEEF16161706E807F907C0F0121663
:1038A0001306E407F50798F0621B730B840B950B66
:1038B00039F40A2661F0232B242B252B21F40895BB
:1038C0000A2609F4A140A6958FEF811D811D089558
:1038D00097F99F6780E870E060E008959FEF80ECC3
:1038E000089500240A941616170618060906089566
:1038F00000240A9412161306140605060895092ECC
:103900000394000C11F4882352F0BB0F40F4BF2B3A
:1039100011F460FF04C06F5F7F4F8F4F9F4F08957A
:1039200057FD9058440F551F59F05F3F71F0479570
:10393000880F97FB991F61F09F3F79F08795089555
:10394000121613061406551FF2CF4695F1DF08C074
:10395000161617061806991FF1CF86957105610591
:1039600008940895E894BB2766277727CB0197F939
:103970000895DB018F939F930E94EB1CBF91AF9141
:10398000A29F800D911DA39F900DB29F900D1124B9
:103990000895A1E21A2EAA1BBB1BFD010DC0AA1F90
:1039A000BB1FEE1FFF1FA217B307E407F50720F0A8
:1039B000A21BB30BE40BF50B661F771F881F991F23
:1039C0001A9469F760957095809590959B01AC016C
:1039D000BD01CF0108950E942D1DA59F900DB49F9C
:1039E000900DA49F800D911D112408952F923F9258
:1039F0004F925F926F927F928F929F92AF92BF92FF
:103A0000CF92DF92EF92FF920F931F93CF93DF93AA
:103A1000CDB7DEB7CA1BDB0B0FB6F894DEBF0FBE07
:103A2000CDBF09942A88398848885F846E847D8454
:103A30008C849B84AA84B984C884DF80EE80FD8056
:103A40000C811B81AA81B981CE0FD11D0FB6F894CC
:103A5000DEBF0FBECDBFED010895A29FB001B39FA1
:103A6000C001A39F700D811D1124911DB29F700D87
:103A7000811D1124911D08955058BB27AA270E942B
:103A8000541D0C947F1C0E94711C38F00E94781CFD
:103A900020F039F49F3F19F426F40C946E1C0EF4B8
:103AA000E095E7FB0C94681CE92F0E94901C58F3EA
:103AB000BA17620773078407950720F079F4A6F513
:103AC0000C94B21C0EF4E0950B2EBA2FA02D0B0116
:103AD000B90190010C01CA01A0011124FF27591B53
:103AE00099F0593F50F4503E68F11A16F040A22F59
:103AF000232F342F4427585FF3CF469537952795CA
:103B0000A795F0405395C9F77EF41F16BA0B620BC8
:103B1000730B840BBAF09150A1F0FF0FBB1F661F0F
:103B2000771F881FC2F70EC0BA0F621F731F841F52
:103B300048F4879577956795B795F7959E3F08F078
:103B4000B0CF9395880F08F09927EE0F979587953A
:103B500008950E94BD1D0C947F1C0E94781C58F093
:103B60000E94711C40F029F45F3F29F00C94681CFE
:103B700051110C94B31C0C946E1C0E94901C68F3A1
:103B80009923B1F3552391F3951B550BBB27AA2716
:103B900062177307840738F09F5F5F4F220F331F50
:103BA000441FAA1FA9F335D00E2E3AF0E0E832D018
:103BB00091505040E695001CCAF72BD0FE2F29D01B
:103BC000660F771F881FBB1F261737074807AB07ED
:103BD000B0E809F0BB0B802DBF01FF2793585F4F62
:103BE0003AF09E3F510578F00C94681C0C94B31C7D
:103BF0005F3FE4F3983ED4F3869577956795B79544
:103C0000F7959F5FC9F7880F911D9695879597F94E
:103C10000895E1E0660F771F881FBB1F62177307C7
:103C20008407BA0720F0621B730B840BBA0BEE1FDC
:103C300088F7E09508950E94981C88F09F5798F0A7
:103C4000B92F9927B751B0F0E1F0660F771F881FA1
:103C5000991F1AF0BA95C9F714C0B13091F00E94BB
:103C6000B21CB1E008950C94B21C672F782F8827FE
:103C7000B85F39F0B93FCCF3869577956795B395E2
:103C8000D9F73EF490958095709561957F4F8F4F51
:103C90009F4F08950E94441C08F48FEF0895991BCC
:103CA00079E004C0991F961708F0961B881F7A9533
:103CB000C9F780950895AA1BBB1B51E107C0AA1F35
:103CC000BB1FA617B70710F0A61BB70B881F991FBD
:103CD0005A95A9F780959095BC01CD01089597FB61
:103CE000072E16F4009407D077FD09D00E945B1EC2
:103CF00007FC05D03EF4909581959F4F08957095EF
:103D000061957F4F08950E942D1D332312F48A1B65
:103D10009B0B0C948D1E0E942D1DB7FF0895821BD6
:103D2000930B0895EE0FFF1F0590F491E02D099479
:103D30000F931F93CF93DF938230910510F482E0AD
:103D400090E0E091A704F091A80420E030E0A0E02A
:103D5000B0E0309719F140815181028113814817F9
:103D60005907C8F08417950769F4109731F0129637
:103D70000C93129713961C9327C00093A7041093DB
:103D8000A80422C02115310519F04217530718F471
:103D90009A01BD01EF01DF01F801DBCF21153105EB
:103DA000F9F0281B390B2430310580F48A819B817E
:103DB0006115710521F0FB019383828304C0909308
:103DC000A8048093A704FE01329644C0FE01E20FCE
:103DD000F31F8193919322503109398328833AC08C
:103DE0002091A5043091A604232B41F420911201C7
:103DF000309113013093A6042093A5042091100163
:103E0000309111012115310541F42DB73EB7409194
:103E1000140150911501241B350BE091A504F0917C
:103E2000A604E217F307A0F42E1B3F0B281739074F
:103E300078F0AC014E5F5F4F2417350748F04E0F06
:103E40005F1F5093A6044093A5048193919302C0F1
:103E5000E0E0F0E0CF01DF91CF911F910F91089545
:103E6000CF93DF93009709F481C0FC01329713824E
:103E70001282A091A704B091A804109781F4208128
:103E80003181820F931F2091A5043091A604281739
:103E9000390751F5F093A604E093A50467C0ED013E
:103EA00020E030E0CE17DF0740F44A815B819E01BD
:103EB00041155105F1F0EA01F5CFD383C28340816A
:103EC0005181840F951FC817D90759F488819981AA
:103ED000840F951F0296918380838A819B819383AF
:103EE00082832115310529F4F093A804E093A704F7
:103EF0003DC0E901FB83EA8349915991C40FD51F65
:103F0000EC17FD0761F480819181840F951F029663
:103F1000E90199838883828193819B838A83E0E08E
:103F2000F0E012968D919C911397009719F0FD0186
:103F3000DC01F7CF8D919C9111979D012E5F3F4F32
:103F4000820F931F2091A5043091A60428173907EA
:103F500069F4309729F41092A8041092A70402C0C3
:103F600013821282B093A604A093A504DF91CF918F
:103F70000895A0E0B0E0EFEBFFE10C94FA1CEC0137
:103F8000009721F4CB010E94981EB4C0FC01E60FFB
:103F9000F71F9C0122503109E217F30708F4A8C06B
:103FA000D9010D911C91119706171707B0F0053034
:103FB000110508F49BC0C80104978617970708F4F9
:103FC00095C002501109061B170B019311936D93B5
:103FD0007C93CF010E94301F89C05B01A01AB10AF7
:103FE0004C01800E911EA091A704B091A804612CF1
:103FF000712CE12CF12C109709F446C08D919C9105
:104000001197A815B905B1F56C0142E0C40ED11C99
:10401000CA14DB0478F14C018A189B08640142E061
:10402000C40ED11C1296BC9012971396AC91B5E0B9
:10403000CB16D10440F0B282A38391828082D90151
:104040006D937C9309C00E5F1F4F800F911FF90184
:1040500091838083EB2DFA2FE114F10431F0D70125
:104060001396FC93EE93129741C0F093A804E0934B
:10407000A7043CC06816790608F43C017D0112963D
:104080000D90BC91A02DB7CF8091A5049091A6046E
:1040900088169906E1F466167706C8F48091100137
:1040A00090911101009741F48DB79EB74091140192
:1040B00050911501841B950BE817F907C8F4F0938C
:1040C000A604E093A504F901718360830FC0CB01BE
:1040D0000E94981E7C01009759F0A801BE010E9421
:1040E0009120CE010E94301FC70104C0CE0102C042
:1040F00080E090E0CDB7DEB7EEE00C94161D81E0D5
:1041000090E0F8940C94B120FB01DC0104C08D9187
:104110000190801921F441505040C8F7881B990B39
:104120000895FB01DC0102C001900D924150504006
:10413000D8F70895DC0101C06D9341505040E0F77D
:104140000895FB01DC018D91019080190110D9F3D4
:10415000990B0895FB01DC0101900D920020E1F71D
:10416000089511E0C3EED1E004C0FE010E94921E4A
:0C4170002196C43ED107C9F7F894FFCF98
:10417C00050E020E020000000A15150A04FFFF07C7
:10418C000000A9048000AC00410143029F035005CC
:10419C0042075609640B3F0DB80EAC0F001000001F
:1041AC000000A2020F023902EF026A0248025C020E
:1041BC0000000000C8039B03F8036F0393037F0305
:1041CC0070030000000079080408F8031B03D307F0
:1041DC006C071907250300000000A90C0F02F80357
:1041EC00F7032B2B2B004F4B004552524F520052D2
:1041FC00657175657374696E6720426C756566725E
:10420C0075697420696E666F3A00302E362E360052
:10421C0041542B48574D6F64654C45443D4D4F44BC
:0A422C0045000D0A4F4B0D0A00007B
:107E0000112484B714BE81FFF0D085E080938100F7
:107E100082E08093C00088E18093C10086E0809377
:107E2000C20080E18093C4008EE0C9D0259A86E02C
:107E300020E33CEF91E0309385002093840096BBD3
:107E4000B09BFECF1D9AA8958150A9F7CC24DD24C4
:107E500088248394B5E0AB2EA1E19A2EF3E0BF2EE7
:107E6000A2D0813461F49FD0082FAFD0023811F036
:107E7000013811F484E001C083E08DD089C08234E0
:107E800011F484E103C0853419F485E0A6D080C0E4
:107E9000853579F488D0E82EFF2485D0082F10E0AE
:107EA000102F00270E291F29000F111F8ED06801E7
:107EB0006FC0863521F484E090D080E0DECF843638
:107EC00009F040C070D06FD0082F6DD080E0C81688
:107ED00080E7D80618F4F601B7BEE895C0E0D1E017
:107EE00062D089930C17E1F7F0E0CF16F0E7DF06D8
:107EF00018F0F601B7BEE89568D007B600FCFDCFD4
:107F0000A601A0E0B1E02C9130E011968C91119780
:107F100090E0982F8827822B932B1296FA010C0160
:107F200087BEE89511244E5F5F4FF1E0A038BF0790
:107F300051F7F601A7BEE89507B600FCFDCF97BE46
:107F4000E89526C08437B1F42ED02DD0F82E2BD052
:107F50003CD0F601EF2C8F010F5F1F4F84911BD097
:107F6000EA94F801C1F70894C11CD11CFA94CF0C13
:107F7000D11C0EC0853739F428D08EE10CD085E9AC
:107F80000AD08FE07ACF813511F488E018D01DD067
:107F900080E101D065CF982F8091C00085FFFCCF94
:107FA0009093C60008958091C00087FFFCCF809118
:107FB000C00084FD01C0A8958091C6000895E0E648
:107FC000F0E098E1908380830895EDDF803219F02E
:107FD00088E0F5DFFFCF84E1DECF1F93182FE3DFCA
:107FE0001150E9F7F2DF1F91089580E0E8DFEE27F6
:047FF000FF270994CA
:027FFE00040479
:0400000300007E007B
:00000001FF
